:020000040800F2
:10000000180E0020A9010008953500087523000886
:10001000853400083D0C00089136000800000000FF
:100020000000000000000000000000009D350008F6
:10003000410C00080000000099350008A1350008B7
:10004000C3010008C3010008C3010008C301000880
:10005000C3010008C3010008C3010008C301000870
:10006000C3010008C3010008C3010008C301000860
:10007000C3010008C3010008C3010008C301000850
:10008000C3010008C3010008C3010008C301000840
:10009000C3010008C3010008C3010008C301000830
:1000A000C3010008C3010008C3010008C301000820
:1000B000A9350008C3010008C3010008C3010008F6
:1000C000C3010008C3010008C3010008C301000800
:1000D000C3010008C3010008C3010008C3010008F0
:1000E000C3010008C3010008C301000800F002F8C2
:1000F00000F04AF80AA090E8000C82448344AAF178
:100100000107DA4501D100F03FF8AFF2090EBAE875
:100110000F0013F0010F18BFFB1A43F0010318473B
:100120008C4F0000AC4F0000103A24BF78C878C153
:10013000FAD8520724BF30C830C144BF04680C60ED
:10014000704700000023002400250026103A28BF35
:1001500078C1FBD8520728BF30C148BF0B60704739
:10016000662904F0D086642900F052800020704790
:100170001FB500F0E9FB04000020002104F0ECFAB8
:10018000E0601FBD10B510BD00F0E2FC1146FFF7A6
:10019000EFFF03F07FFA00F000FD03B4FFF7F2FF7A
:1001A00003BC00F043FD00000948804709480047B0
:1001B000FEE7FEE7FEE7FEE7FEE7FEE7FEE7FEE717
:1001C000FEE7FEE704480549054A064B7047000074
:1001D000A5350008ED00000818020020180E0020C8
:1001E00018080020180800200FB41CB5074B06AAF9
:1001F0007B4469460090059800F08DFB002069461D
:1002000000F09CFB1CBC5DF814FB000049070000DB
:100210002DE9F0410646002410687529314616A5DF
:1002200010D0AFF30080002802DA404213A507E0A7
:1002300031688A0701D512A502E0490704D511A546
:10024000012401E0AFF3008000210A2206F1240717
:1002500009E0B0FBF2FCB0FBF2F302FB1C00303013
:1002600078541846491C0028F3D123462A463046C4
:10027000BDE8F04100F0E3B8000000002D000000F0
:100280002B000000200000002DE9F0474FF0000A8D
:1002900089460446C0F820A02046E1688847002827
:1002A00076D0252806D0D4E901219047206A401C49
:1002B0002062F1E7E168204600258847C4F81CA0C9
:1002C00006460027C4F818A02A2E09D0304604F0AC
:1002D000E9F838B304EB8708303EC8F8186019E035
:1002E00059F8041B204604EB87029161E1688847B6
:1002F000012F064618D1E069002820DA25F02005F4
:100300001DE0D8F8180000EB800006EB4000303804
:10031000C8F818002046E1688847064604F0C2F88D
:100320000028EED1012F0AD02E2E08D12046E168F8
:1003300088477F1C0646022F45F02005C4DBA069D4
:10034000002803DA404245F00105A061E80701D02A
:1003500025F01005B6B1A6F14100192802D82036C3
:1003600045F400654A463146204625604D46FFF774
:10037000F7FE58B1012806D0ED1D25F0070000F169
:10038000080989E704E005F1040985E730468AE7B2
:10039000206ABDE8F08710B5431C02E010F8011B8D
:1003A00071B18107FAD14FF0013202C88C1A8C4327
:1003B00014EAC211F9D0C01A0A0603D0C01E10BD3B
:1003C000C01A10BD0A0401D0801E10BD0902FCD065
:1003D000401E10BD4FF0000200B5134694469646ED
:1003E000203922BFA0E80C50A0E80C50B1F1200148
:1003F000BFF4F7AF090728BFA0E80C5048BF0CC0F6
:100400005DF804EB890028BF40F8042B08BF704753
:1004100048BF20F8022B11F0804F18BF00F8012BC5
:10042000704770477047704710B500F091FA006848
:1004300010BD10B5044600F08BFA046010BD2DE924
:10044000F0470D4699469246044600F1240801689B
:10045000880604D5E06921F01001216000E0012048
:10046000A84201DD471B00E00027A1697A1902EBD1
:100470000900081AA0612078C00602D42046AFF314
:100480000080002608E0D4E901211AF80600904710
:10049000206A401C761C20624E45F4DB2078C006A2
:1004A0000AD52046AFF3008006E0D4E901213020D0
:1004B0009047206A401C2062381EA7F10107F4DC37
:1004C00007E0D4E9012118F805009047206A401C94
:1004D0002062281EA5F10105F3DC2046AFF3008061
:1004E0002078000602D50220BDE8F0870120FBE756
:1004F0002DE9FF4F0C461E464FF0FF378BB0D2E977
:100500000001DDF860800A908A46C1F30A5505B9FA
:100510003D46002108464FF00000BAF1000F00F4FC
:10052000400005DA00EB80004FF4400101EA500082
:100530004FEA9059B9F1010F00DDB9460A9850EA27
:100540004A000ED044F61050A5F2FF3545432F1453
:10055000B8F1000F1ED07542291E1EDDC9F1000240
:100560001CE0B8F1010F4FF0000001D0302103E092
:10057000F24305E02154401CB042FBDB3046002230
:10058000002121540B99C1F80880C1E900200FB067
:10059000BDE8F08FBD1B6D1CDEE74A4600DA6942FC
:1005A00006A800F05FFA06AB93E8070003AB83E808
:1005B000070050460A9903F07FFB8DE80700A0F57D
:1005C00000501F3800900398002D0ADD42F21F01F1
:1005D0004A460844002303A90390684603F0E8FD57
:1005E00009E0A0F500504A461F38002303A90390F4
:1005F000684603F0F2FD8DE807000004000C03D00C
:100600004FF0FF30410800E01046B8F1000F03D072
:100610000022009215461EE0751E05D400F09CF9DC
:10062000303262556D1EF9D5B3460122084302D01F
:1006300000227F1C04E02078302801D100227F1E98
:10064000002A099784D01DE0112D07DA00F084F903
:10065000303262556D1C50EA0102F5D1084302D0D8
:100660000098C8B10EE00021681E05E0235C625CC2
:1006700063542254401E491C8142F7DBAB46A81B41
:10068000401E0990002004F80B000B98099AC0F84E
:100690000880C0E9002B7AE711264FF0000857E7E1
:1006A0002DE9F04F88460446D21D22F0070191B093
:1006B000D1E90001CDE90A0103F0C6FE02460B981C
:1006C000C00F01D02D2007E02068810701D52B2025
:1006D00002E0202101EAC000032A099001D0072A84
:1006E00005DB03464146204600F07CF90BE120780B
:1006F000800601D5E06900E00620B8F1650F81466B
:1007000006D0B8F1660F18D0B8F1670F70D131E09C
:100710000020B9F1110F009001DB112301E009F174
:1007200001030AAA01A90CA8FFF7E2FEDDE90C709B
:10073000002609F10105834647E001204B46009061
:100740004FF000470AAA01A90CA8FFF7D1FEDDE986
:100750000DB00C995D46002610B909F101000D1885
:10076000B9EB050003D4C0F1FF3609F10105A5EB93
:1007700009002BE0B9F1010F01DA4FF00109002067
:10078000B9F1110F0090484601DD112300E0034646
:100790000AAA01A90CA8FFF7ABFEDDE90C704D46D3
:1007A00000268346207800070AD4AB4500DA5D4670
:1007B00001A8012D04DD411911F8011C302907D0D1
:1007C0004F4502DA17F1040F04DA012082460FE0E8
:1007D0006D1EEEE7002F02DCED1B3E4403E0781CAB
:1007E000A84200DD7D1CB81B00F1010A4FF0004754
:1007F0002078000703D4AA4501DB4FF0FF3A00211F
:10080000B7F1004F0DF143088DF8431024D00220BA
:100810002B23002F01DA7F422D230A21021EA0F193
:10082000010000DC5FB197FBF1FC97FBF1F201FBEB
:100830001C7C17460CF1300C08F801CDEEE7A8F14E
:10084000010003702188090501D5452100E06521DB
:10085000A0F1010800F8011C09980FA9A1EB0807F5
:10086000FF1D00B10120411901EBEA70A169384474
:10087000081A401EA0612078C00602D42046AFF3BB
:100880000080099828B1D4E901219047206A401CD2
:1008900020622078C00622D52046AFF300801EE0FB
:1008A000002E04DBB34502DD01A8805D00E03020AE
:1008B000D4E901219047206A401C2062761CAAF1ED
:1008C00001005FEA000A0AD100F03EF8C068016842
:1008D000405CD4E901219047206A401C2062281E18
:1008E000A5F10105DCDC07E0D4E9012118F8010BD2
:1008F0009047206A401C2062381EA7F10107F3DCF4
:100900002046AFF30080032011B041E601694A1C84
:1009100002610878704700B58FB0CDE90131002140
:10092000059105497944CDE9031011466846FFF762
:10093000ABFC0FB000BD0000E5FFFFFF0A6802F846
:10094000010B0A607047000000487047400000201B
:10095000004870472000002030B5B0F10A0271F164
:1009600000034FEA900E4EEA817EB0EB0E0061EB81
:1009700091014FEA101E4EEA017E10EB0E0041EB92
:1009800011114FEA102E4EEA016E10EB0E0041EBF2
:1009900011214FEA104E4EEA014E10EB0E0041EBD2
:1009A0001141401841F100014FEAD00040EA417086
:1009B0004FEAD1014FEA810444EA907410EB8005BC
:1009C00044EB01046D1944EB0404521BA3414FF0A6
:1009D000000348BF0A3200D530BD401C41F1000180
:1009E00030BD00002DE9F0411F4604460326016892
:1009F000072A01F4006004DB08B116A505E016A57E
:100A000003E008B115A500E015A521F01000206055
:100A1000A069C01EA0610FB1401EA0612046AFF3C7
:100A200000804FB1D4E9012138469047206A401C2C
:100A30002062C01C206206E0206AFAE7D4E90121A6
:100A400015F8010B9047761EF8D22046AFF30080D0
:100A5000BDE8F0814E414E006E616E00494E460089
:100A6000696E66002DE9F047814616468AB0354822
:100A700078440DC88DE80D0032487844801C03ACE2
:100A80000DC884E80D0041F69B300844372190FBE7
:100A9000F1F290FBF1F5A5F1800501FB12041B3C7E
:100AA00002D56442012000E00020DFF898A08046D3
:100AB0000027FA44AAF1BE0A0EE0E0070AD0324647
:100AC000684607EB470101230AEB810103F085FB30
:100AD0008DE8070064107F1C002CEED1194F7F4475
:100AE000AE3F19E0E80715D007EB04100DF1180A26
:100AF00090E80E008AE80E00C068F04201D1981913
:100B000008903246012306A903A803F066FB03AB55
:100B100083E807006D10641C002DE3D14FF0010342
:100B200032466946B8F1000F03A802D003F040FB3B
:100B300001E003F052FBC9E90001C9F808200AB03E
:100B4000BDE8F087F4450000004870472000002011
:100B50007546FFF7F9FFAE4605006946534620F09B
:100B60000700854618B020B5FFF72CFBBDE82040F4
:100B70004FF000064FF000074FF000084FF0000B59
:100B8000AC46ACE8C009ACE8C009ACE8C009ACE8C8
:100B9000C00921F007018D46704710B50446AFF338
:100BA00000802046BDE81040FFF7F7BA4FF0013C47
:100BB00050F8042B51F8043B9A4221D1A2EB0C03CC
:100BC000934313EACC1317D150F8042B51F8043B8C
:100BD0009A4215D1A2EB0C03934313EACC130BD129
:100BE00050F8042B51F8043B9A4209D1A2EB0C03B4
:100BF000934313EACC13DBD04FF00000704700BFE3
:100C0000D01A01BAB1FA81F101F0180122FA01F00B
:100C1000CB40DBB2C0B2C01AC1F120012CFA01F303
:100C2000D11A914311EAC311E6D170470149182046
:100C3000ABBEFEE72600020070470000FEE70000A2
:100C400070470000B0B5044600F026F9054640F2B2
:100C50001400C2F200000078611C18BF044400BFF9
:100C600000F01AF9401BA042FAD3B0BD2DE9F04FB5
:100C700082B00E68002E00F0FF8041F20042C4F204
:100C80000102042340F2004E904208BF03234FF6B6
:100C9000FF7CC4F2010E009300240123C1F2100C6A
:100CA0004FF0000A4FF0000947E000BF012504F0B3
:100CB0000C030F279F402BEA070705FA03F33B437A
:100CC00042F82630D1F804B040F20C455FEACB225E
:100CD000DEF8082054BF22EA080242EA0802C4F201
:100CE0000105CEF808202A685FEA8B2354BF22EA68
:100CF000080242EA08022A605FEA8B33DEF8042029
:100D000054BF22EA080242EA08025FEACB33CEF877
:100D10000420DEF800204FF0010354BF22EA08024D
:100D200042EA0802CEF800200E680AF1010A36FAFB
:100D30000AF204F1040400F09F8003FA0AF816EAAC
:100D4000080FF1D04A68624512DC122A56D8DFE853
:100D500002F0350B45495555555555555555555581
:100D60005555554D510000BFD1F80C9046E000BFDD
:100D70004FF6FF75C1F22105AA420FDC0025C1F232
:100D80001105AA421AD00025C1F21205AA4215D0B7
:100D90000025C1F22105AA4210D02FE00025C1F2A2
:100DA0002205AA420AD00025C1F23105AA4205D087
:100DB0000025C1F23205AA4220D100BF8A684AB19B
:100DC000012A14BFC0F81480C0F810804FF0080941
:100DD00014E000BF4FF0040910E000BFCA6802F140
:100DE00008090BE04FF0000908E000BFCA6802F1F3
:100DF000040903E0CA6802F10C0900BF2246054657
:100E0000BAF1080F24BF203A04352E680F27974007
:100E1000BE4309FA02F232432A60CA79D2067FF54C
:100E200083AF41F21803C4F202031A684FEA9A062C
:100E300042F001021A601A6840F6000302F0010253
:100E40000192019AAEF57E7252F826B0C4F2010307
:100E500098420FD040F60043C4F2010398423FF499
:100E600025AF41F20003C4F20103009D984208BF80
:100E700002251CE700251AE702B0BDE8F08F00004C
:100E80008068084018BF012070470000002A08BF92
:100E9000090401617047000040F21420C2F2000012
:100EA0000068704740F2140040F21421C2F20000C2
:100EB000C2F2000100780A68104408607047000020
:100EC00080B542F20000C4F20200016841F0100156
:100ED0000160032000F08AF80F2000F005F800F010
:100EE00027F8002080BD000070B540F21406C2F261
:100EF000000640F21C013278C2F200014FF47A730E
:100F00000968B3FBF2F20446B1FBF2F1084600F0C7
:100F10005FFB0F2C4FF0010508D838B94FF0FF30B8
:100F200021460022002500F035F87460284670BD87
:100F300082B041F21800C4F202000168022241F0BE
:100F400001010160016801F001010191019941680D
:100F500041F080514160406800F08050009000985E
:100F60000420C4F20100016862F31A61016002B05A
:100F700070470000002848BF704700F01F010122A1
:100F800002FA01F14EF200124009CEF2000242F8DC
:100F90002010704710B54EF60C5CCEF2000CDCF859
:100FA0000030C3F3022E8EF00704042C28BF042463
:100FB000BEF103034FF0FF3E0EFA04F438BF0023E6
:100FC000A14399400EFA03F39A4300F00F03043B48
:100FD0001143634409010C3300F16042B0F1FF3F5B
:100FE000C8BF02F56443197010BD00004EF60C51E5
:100FF000CEF200010A684FF6FF031A4060F30A229E
:1010000042F0806040F0FD70086070472DE9F043C9
:1010100081B0002800F0858042F20008C4F2020886
:101020000446D8F800000D4600F0070088420CD2B4
:10103000D8F8000020F007002843C8F80000D8F8CE
:10104000000000F00700A8426BD1206841F20409BB
:101050008107C4F2020917D5410705D5D9F8001058
:1010600041F4E061C9F80010010705D5D9F8001076
:1010700041F46051C9F80010D9F80010A26821F0BD
:10108000F0011143C9F80010C00741D1D8F80000A1
:1010900000F00700A8420CD9D8F8000020F00700A3
:1010A0002843C8F80000D8F8000000F00700A84264
:1010B00037D12068410707D5D9F80010E26821F43C
:1010C000E0611143C9F80010000708D5D9F8000005
:1010D000216920F4605040EAC100C9F80000D9F845
:1010E000002002F00C00082841F20020C0F27A0033
:1010F00050D145F29A03C2F38341C0F60003595C14
:10110000D2033BD440F60010C0F23D00484341E01A
:10111000606802280AD001282AD159F8041C8903E2
:1011200008D4012001B0BDE8F08300BF59F8041CC9
:101130008901F6D5D9F8001021F003010843C9F858
:101140000000FFF7A9FE064641F28837D9F80000F3
:10115000616800F00C00B0EB810F97D0FFF79CFEA8
:10116000801BB842F2D9032001B0BDE8F08300BF74
:1011700059F8041C8907D4D5DCE700BFD9F8002052
:1011800045F29803C2F34042C0F600039A5C48431C
:10119000B0FBF2F0D9F8001045F28002C1F3031160
:1011A000C0F60002515C40F21C0220FA01F140F24C
:1011B0001800C2F200000068C2F200021160FFF7DE
:1011C00093FE002001B0BDE8F083000040F21C0057
:1011D00041F20401C2F20000C4F202010068096891
:1011E00045F29002C1F30221C0F60002515CC840F2
:1011F0007047000040F21C0041F20401C2F20000FE
:10120000C4F202010068096845F29002C1F3C221EC
:10121000C0F60002515CC840704700002DE9F04163
:1012200082B0002868D00446007841F20006C0076A
:10123000C4F2020625D0706800F00C0004281BD010
:10124000706800F00C00082802D17068C00313D445
:101250006068002800F06881B0F5A02F00F07C8164
:10126000B0F5803F00F07C81306820F48030306041
:10127000306820F4802076E13068800301D5606812
:10128000D0B32078800718D5706810F00C0F07D005
:10129000706800F00C0008286ED17068C0036BD431
:1012A0003068800702D52069012825D1306861693E
:1012B00020F0F80040EAC1003060207800071FD419
:1012C0002078400732D4E56995B1706800F00C00D1
:1012D000082840F08F80012D0ED07068216A00F43C
:1012E00080328A4208D1616A00F47010884203D1CA
:1012F000002002B0BDE8F081012002B0BDE8F0811D
:10130000A069002862D00020C4F242200121C0F868
:101310008014FFF7C1FD0546706A800700F18C80DC
:10132000FFF7BAFD401B0228F6D92AE1F06910F058
:10133000805808D1F06940F08050F061F06900F009
:1013400080500090009847F20007C4F20007386808
:10135000C00529D4386840F480703860FFF79CFDE0
:10136000054600BF3868C0051ED4FFF795FD401B39
:101370006428F7D905E100BF2069002840F2000089
:10138000C4F2422000F0828001210160FFF784FD59
:10139000054600BF306880073FF588AFFFF77CFD4A
:1013A000401B0228F6D9ECE0E068002800F08080BD
:1013B000052800F09780012800F09880306A20F01E
:1013C00001003062306A20F0040092E00020C4F294
:1013D00042200021C0F88014FFF75EFD054600BFE3
:1013E000706A80077FF56CAFFFF756FD401B02283F
:1013F000F6D9C6E00027C4F2422700203866FFF77E
:101400004BFD022D05460BD13068800140F1BE80B6
:10141000FFF742FD401B02284FF00300F4D968E7B4
:10142000306880017FF564AFFFF736FD401B02286E
:101430004FF00300F4D95CE740F21C00C2F2000058
:10144000006844F6D351C1F26201A0FB0101480AD1
:10145000019000BF00BF0198411E002801913FF498
:101460002FAF00BF0198411E002801913FF428AF23
:1014700000BF0198411E002801913FF421AF00BF39
:101480000198411E00280191E4D119E70021016073
:10149000FFF702FD054600BF306880077FF50DAFFE
:1014A000FFF7FAFC401B02284FF00300F4D920E7B5
:1014B000306A20F001003062306A20F004003062AF
:1014C000FFF7EAFC054641F2883700BF306A800723
:1014D00020D5FFF7E1FC401BB8424FF00300F5D9DF
:1014E00007E700BF306A40F004003062306A40F025
:1014F00001003062FFF7D0FC054641F2883700BF9B
:10150000306A800706D4FFF7C7FC401BB842F7D902
:1015100037E000BFB8F1000F7FF4D5AEF06920F0DE
:101520008050F061CFE600BF306820F4803030603A
:10153000306820F480203060FFF7AEFC054600BF25
:10154000306880037FF59DAEFFF7A6FC401B642842
:101550004FF00300F4D9CCE6306840F480203060CE
:10156000306840F480303060FFF796FC054600BFDD
:10157000306880033FF585AEFFF78EFC401B642882
:10158000F6D9032002B0BDE8F08100BF206AB0F5B3
:10159000803F05D17168A26821F400311143716068
:1015A0007168626A21F4741110430843706001206D
:1015B0003866FFF771FC0446306880013FF598AE4D
:1015C000FFF76AFC001B02284FF00300F4D990E6F5
:1015D000411E0020B0EB116F1CBF012070474EF27E
:1015E0001002CEF2000251604EF62351CEF20001FD
:1015F000F0230B7007219060116070477047000066
:1016000070470000B0B590F83C20012A04BF0220CA
:10161000B0BD01F108053CCDD1E900CE23F47C53E7
:1016200022F470521A432EF4F0431A432CF4E04390
:101630001A4324F4C0431A432A43C96922F480425E
:10164000036811435964002180F83C100846B0BD7E
:1016500010B590F83C20012A4FF0020233D080F8F8
:101660003D200268D2F804E0D2F808C00C682EF0E1
:101670007003234340F2FF74C4F20004A24253609B
:101680000ADCB2F1804F13D040F20043C4F20003F1
:101690009A420DD011E000BF42F60043C4F20103AC
:1016A0009A4205D040F60003C4F200039A4204D1E6
:1016B00049682CF08003194391600121002280F8D1
:1016C0003D1080F83C20104610BD00002DE9F0418F
:1016D0000168B1F1804F01D0BDE8F081017F02299E
:1016E0003CD00129F8D1002100F08CFC40F28005AB
:1016F000C2F200050028E86108BFBDE8F08103F0F0
:101700003BFA044642F20040C4F67410214603F04E
:1017100009F940F20008C4F27A486862204641465E
:1017200003F000F90646286A6E6303F025FA414685
:10173000074603F0F7F80146E862304603F06EFB17
:1017400000212863C4F2C821384603F091FA2146EB
:1017500003F0E8F8A862BDE8F08100BF042100F0C2
:1017600051FC40F28001C2F200010862BDE8F08144
:10177000F0B590F83C30012B04BF0220F0BD4FEAD9
:10178000B202032A22D8DFE802F00327476500BF30
:101790000368D1E900C5D1F80CE01C6A1A6A40F26E
:1017A000FF7722F001021A621A4652F8186FC4F24B
:1017B0000007BB4272DCB3F1804F7BD040F20047A0
:1017C000C4F20007BB4275D08EE000BF01210022A9
:1017D00080F83C200846F0BD0368D1E900E6D1E975
:1017E00002C11C6A1A6A360222F010021A621A46F4
:1017F00052F8185F4FF2FF07BE4325F4734561F3BB
:101800000F3624F0A0040EF00A0746EA050144EA68
:10181000071711601F623AE00768D1E900C5D1E9F6
:1018200002313C6A3A6A61F3071522F480723A6227
:101830003A4652F81C6F26F0F30645EA0601CCF34F
:10184000560666F3492411603C62116821F00C01D0
:10185000116040E00368D1E900E6D1E902C11C6AE9
:101860001A6A360222F480521A621A4652F81C5F33
:101870004FF2FF07BE4325F4734561F30F36CEF3F5
:10188000520746EA050167F34D3411601C62116886
:101890004FEA0C2321F4406111601CE042F600473E
:1018A000C4F20107BB4205D040F60007C4F20007AE
:1018B000BB4219D126F00306354324F00A070CF089
:1018C0000A066EF3071537449D611F629F6927F072
:1018D0000C079F618B681168194311600021002279
:1018E00080F83C200846F0BD46F00105E5E7000021
:1018F000002804BF0120704710B5044690F83D0051
:1019000028B9002084F83C00204600F06FF802203F
:1019100084F83D00206840F2FF730268C4F20003BF
:1019200042F6004C9842C4F2010C15DCB0F1804F35
:101930001AD040F20041C4F20001884214D098420B
:1019400018DCB0F1804F1DD040F20041C4F200011C
:10195000884217D01AE000BF604505D040F600016C
:10196000C4F200018842EAD1A16822F070020A4361
:101970009842E6DD604505D040F60001C4F2000162
:10198000884203D1216922F440720A43A36922F0FC
:101990008001D4F804E0E268194360450160C26246
:1019A000C0F828E002D16169CCF830100121416112
:1019B0000269D20703D0026922F00102026100200D
:1019C00084F8461084F83E1084F83F1084F84010E4
:1019D00084F8411084F8421084F8431084F84410CD
:1019E00084F8451084F83D1010BD000080B586B025
:1019F00001680020B1F1804F059001D006B080BD94
:101A000041F21801C4F202014A6842F001024A6040
:101A10004A6802F001020192019A0A6842F0040247
:101A20000A60096801F00401019101990121CDE9E1
:101A30000210049040F60000C4F2010002A9FFF772
:101A400015F91C2000210022FFF7A4FA1C20FFF743
:101A500091FA06B080BD0000B0B504460068C168C8
:101A6000026902EA0105A90720D4680734D42807CF
:101A70004AD4E80660D4E80777D1280600F17F80D1
:101A8000680606D520686FF040010161204600F02D
:101A9000FFFAA80658BFB0BD21686FF020022046AB
:101AA0000A61BDE8B040FFF7ABBD00BF6FF00201B7
:101AB0000161012121778069800703D02046FFF76B
:101AC00005FE05E0204600F08DF8204600F026FADD
:101AD000002020776807CAD520686FF004010161F3
:101AE00002212177806910F4407F03D02046FFF760
:101AF000EDFD05E0204600F075F8204600F00EFAF6
:101B0000002020772807B4D520686FF00801016114
:101B100004212177C069800704D02046FFF7D6FD55
:101B200006E000BF204600F05DF8204600F0F6F920
:101B300000202077E8069ED520686FF01001016133
:101B400008212177C06910F4407F03D02046FFF7B9
:101B5000BDFD05E0204600F045F8204600F0DEF926
:101B600000202077E8073FF488AF20686FF001017C
:101B70000161204600F044FA28067FF581AF206815
:101B80006FF0800101612046FFF738FD68067FF5A0
:101B900080AF77E780B586B0014640F60000C4F21A
:101BA0000100096800F5105300229942049201D007
:101BB00006B080BD41F21801C4F202010A6842F089
:101BC00004020A60096801F00401019101994FF4CF
:101BD0001061029102210391059102A9FFF746F8D5
:101BE00006B080BD704700002DE9F04390F83C300E
:101BF000012B04BF0220BDE8F0834FEAB202032AA2
:101C00003CD8DFE802F003437FB900BF036842F627
:101C100000461D6A1A6AC4F2010622F001021A6225
:101C20001A465C6852F818CFB3428E68D1F800E0CB
:101C300025F0020545EA06050CD1CE68D1E9057804
:101C400024F4407425F00C0526F004063C4335438B
:101C500044EA08042CF0730747EA0E075C609F61B2
:101C60004F6809695F631D629F6947F008079F61BC
:101C70009F6927F004079F61AEE000BF01210022A9
:101C800080F83C200846BDE8F08300BF036842F6B8
:101C900000461D6A1A6AC4F2010622F010021A6296
:101CA0001A46D3F804C052F8184FB3428E68D1F8E0
:101CB00000E025F0200545EA06150FD1CE68D1E9F0
:101CC00005986FF0400707EA06162CF4406725F0E8
:101CD000C00547EA8907354347EA880C24F4E644FF
:101CE00044EA0E27C3F804C09F614F6809699F63E7
:101CF0001D629F6947F400679F619F6927F48067B1
:101D00009F6168E0036842F600461D6A1A6AC4F2E1
:101D1000010622F480721A621A46D3F804C052F8FF
:101D20001CEFB3428E680C6825F4007545EA062561
:101D30000FD1CE68D1E90598360240F2FF47BE4385
:101D40002CF4405725F4406547EA0917354347EA24
:101D5000081C2EF073072743C3F804C0DF614F68E7
:101D60000969DF631D62DF6947F00807DF61DF692A
:101D700027F00407DF612FE0036842F60047D3F83D
:101D800020C01A6AC4F2010722F480521A621A466D
:101D90005C6852F81C5FD1F800E08E68BB4204D149
:101DA0004F6924F4804444EA87142CF4005747EA2E
:101DB000063725F4E64646EA0E265C60DE614E688C
:101DC00009691E641F62DF6947F40067DF61DF692C
:101DD00027F48067DF61090213681943116000214D
:101DE000002280F83C200846BDE8F083002804BFAC
:101DF0000120704710B5044690F83D0028B9002036
:101E000084F83C00204600F06FF8022084F83D0082
:101E1000206840F2FF730268C4F2000342F6004CEF
:101E20009842C4F2010C15DCB0F1804F1AD040F298
:101E30000041C4F20001884214D0984218DCB0F18D
:101E4000804F1DD040F20041C4F20001884217D0FB
:101E50001AE000BF604505D040F60001C4F2000161
:101E60008842EAD1A16822F070020A439842E6DD76
:101E7000604505D040F60001C4F20001884203D15C
:101E8000216922F440720A43A36922F08001D4F848
:101E900004E0E268194360450160C262C0F828E0CE
:101EA00002D16169CCF83010012141610269D20789
:101EB00003D0026922F001020261002084F846107A
:101EC00084F83E1084F83F1084F8401084F84110E4
:101ED00084F8421084F8431084F8441084F84510C4
:101EE00084F83D1010BD000081B0006842F600414A
:101EF000C4F20101884201D001B0704741F21800DC
:101F0000C4F20200016841F400610160006800F45D
:101F100000600090009801B070470000704700001A
:101F200041B1082910D0042914BF00F1410200F189
:101F30003F020BE090F83E20012A1CBF01207047B1
:101F4000022280F83E2013E000F140021278012ABC
:101F50001CBF012070470222082907D0042914BFA2
:101F600080F8412080F83F2002E000BF80F8402048
:101F7000006801F01F010122036A8A4023EA02017E
:101F80000162036A42F64441C4F201011A43A1F11D
:101F90004403984202620FD040F2FF71C4F2000184
:101FA000884213DCB0F1804F1CD040F20041C4F2F3
:101FB0000001884216D01CE00A6842F400420A6020
:101FC00040F2FF71C4F200018842EBDD42F60041AD
:101FD000C4F20101884205D040F60001C4F20001BC
:101FE000884206D1816801F00701062904BF00205C
:101FF0007047016841F00101016000207047000056
:10200000704700004FEAB101032984BF00207047E8
:10201000DFE801F0020E060A0068343000687047FD
:1020200000683C30006870470068403000687047C6
:102030000068383000687047B0B5044690F83C003E
:1020400001284FF0020008BFB0BD012584F83C50C4
:1020500084F83D00206801F0ADFA00284FF001003F
:1020600006D0002184F83D5084F83C10B0BD00BF7C
:102070002068C16821F04001C160C16821F480413D
:10208000C1600020002184F83D5084F83C10B0BDB0
:1020900070470000002804BF0120704710B50446B7
:1020A00090F8410028B9002084F84000204600F054
:1020B00061F8242084F841002068D4E90212C36842
:1020C00023F40053C360036923F440531A430261AD
:1020D000D4E904231143C268194341F20C639A43C3
:1020E0001143C1604169A26921F44071114343F673
:1020F0000002C4F201029042416103D0FFF766F88A
:1021000002E000BFFFF776F86268192148439100AA
:10211000B0FBF1F048F21F51C5F2EB11A0FB012317
:102120005A096FF0630302FB0300322303EB001034
:10213000A0FB0101F02303EA5113206803EB021214
:10214000C1F3431111448160016921F4904101619F
:10215000416921F02A014161C16841F40051C16027
:1021600000202021606484F8411084F842106063EC
:1021700010BD000070B586B040F60004C4F2010442
:10218000006804F5405100268842049602D006B04B
:1021900070BD00BF41F21800C4F20200016802AD38
:1021A00041F480410160016801F48041019101998D
:1021B000016841F0040101600068294600F0040054
:1021C000019001984FF400700290022003900320C8
:1021D00005902046FEF74AFD4FF48060CDE90206E7
:1021E000204629460496FEF741FD06B070BD00006A
:1021F0002DE9F041044690F8410020281CBF022040
:10220000BDE8F0810F4600294FF0010000F0B080DA
:102210001646002A08BFBDE8F0814FF000082120D3
:102220001D46C4F8448084F84100FEF735FEA684BC
:10223000E684A1680646B1F5805F05D120690028D3
:1022400014BF3846B8460746E08CC8B1681C19D0A0
:10225000002D5FD120680AE038F8021B00276FF3D9
:102260005F214160E18C0139E184E18C51B3016867
:1022700009066FD5002FEFD017F8011BF1E700BF5B
:1022800020681FE0206802E00168090609D401689F
:1022900009065FBF01685FEA016101685FEA0161E9
:1022A000F2D51FB117F8011B05E000BF38F8021B7B
:1022B00000276FF35F214160E18C0139E184E18CFB
:1022C0000029E4D10168490611D4002D4AD0691CC7
:1022D00019D100BF016849065FBF01685FEA41612B
:1022E00001685FEA416102D401684906F2D5202005
:1022F00084F841000020BDE8F08100BF2068C1687B
:1023000000684006F3D4FEF7C7FD801BA842F5D94C
:102310002AE000BF206800BF0168090608D4FEF764
:10232000BBFD801BA84217D82068C168F4E700BF36
:1023300017B117F8011B04E038F8021B00276FF3F0
:102340005F214160E18C0139E184E18C0029E3D116
:10235000B8E700BFFEF7A0FD202084F8410003206D
:10236000BDE8F081FEF798FD202084F841000320AD
:10237000BDE8F081FEE700002DE9F04F83B040F6A4
:102380000044C4F2010420464FF400710122FEF71C
:102390007DFD20464FF480710122FEF777FD0F206E
:1023A000019000BF0198411E019160B10198411E4A
:1023B000019140B10198411E019120B10198411E47
:1023C00000280191EED120464FF40071FEF758FD30
:1023D000009020464FF480710022FEF757FD0F2039
:1023E000029000BF0298411E029160B10298411E06
:1023F000029140B10298411E029120B10298411E03
:1024000000280291EED120464FF480710122FEF7A0
:102410003DFD0F20019000BF0198411E019160B168
:102420000198411E019140B10198411E019120B1D6
:102430000198411E00280191EED120464FF4007111
:10244000FEF71EFD814620464FF480710022FEF704
:102450001DFD0F20029000BF0298411E029160B145
:102460000298411E029140B10298411E029120B192
:102470000298411E00280291EED120464FF480714F
:102480000122FEF703FD0F20019000BF0198411EBD
:10249000019160B10198411E019140B10198411E26
:1024A000019120B10198411E00280191EED12046F2
:1024B0004FF40071FEF7E4FC824620464FF4807131
:1024C0000022FEF7E3FC0F20029000BF0298411E9D
:1024D000029160B10298411E029140B10298411EE2
:1024E000029120B10298411E00280291EED12046AF
:1024F0004FF480710122FEF7C9FC0F20019000BF4C
:102500000198411E019160B10198411E019140B1B5
:102510000198411E019120B10198411E00280191AE
:10252000EED120464FF40071FEF7AAFC8346204608
:102530004FF480710022FEF7A9FC0F20029000BF2B
:102540000298411E029160B10298411E029140B171
:102550000298411E029120B10298411E002802916A
:10256000EED120464FF480710122FEF78FFC0F2040
:10257000019000BF0198411E019160B10198411E78
:10258000019140B10198411E019120B10198411E75
:1025900000280191EED120464FF40071FEF770FC47
:1025A000064620464FF480710022FEF76FFC0F2094
:1025B000029000BF0298411E029160B10298411E34
:1025C000029140B10298411E029120B10298411E31
:1025D00000280291EED120464FF480710122FEF7CF
:1025E00055FC0F20019000BF0198411E019160B180
:1025F0000198411E019140B10198411E019120B105
:102600000198411E00280191EED120464FF400713F
:10261000FEF736FC074620464FF480710022FEF795
:1026200035FC0F20029000BF0298411E029160B15C
:102630000298411E029140B10298411E029120B1C0
:102640000298411E00280291EED120464FF480717D
:102650000122FEF71BFC0F20019000BF0198411ED4
:10266000019160B10198411E019140B10198411E54
:10267000019120B10198411E00280191EED1204620
:102680004FF40071FEF7FCFB054620464FF48071C5
:102690000022FEF7FBFB0F20029000BF0298411EB4
:1026A000029160B10298411E029140B10298411E10
:1026B000029120B10298411E00280291EED12046DD
:1026C0004FF480710122FEF7E1FB0F20019000BF63
:1026D0000198411E019160B10198411E019140B1E4
:1026E0000198411E019120B10198411E00280191DD
:1026F000EED120464FF40071FEF7C2FB8046204623
:102700004FF480710022FEF7C1FB0F20029000BF42
:102710000298411E029160B10298411E029140B19F
:102720000298411E029120B10298411E0028029198
:10273000EED1B8F1000F18BF4FF001080098002843
:1027400018BF0120B9F1000F18BF4FF0010949EA85
:1027500040008000BAF1000F18BF4FF0010A40EAB4
:102760004A00BBF1000F18BF4FF0010B5844800026
:10277000002E18BF012640EA4600002F18BF01278F
:1027800038448000002D18BF012540EA4500404430
:10279000C0B203B0BDE8F08F10B584B040F600447D
:1027A000C4F2010420464FF400710122FEF76EFBD3
:1027B00020464FF480710122FEF768FB0F20019044
:1027C0000198411E019160B10198411E019140B1F3
:1027D0000198411E019120B10198411E00280191EC
:1027E000EED120464FF400710022FEF74FFB0F2080
:1027F000039000BF0398411E039160B10398411EEE
:10280000039140B10398411E039120B10398411EEA
:1028100000280391EED120464FF480710022FEF78C
:1028200035FB0F20029000BF0298411E029160B15B
:102830000298411E029140B10298411E029120B1BE
:102840000298411E00280291EED104B010BD000094
:10285000B0B582B040F60044C4F2010420464FF403
:1028600000710122FEF712FB0F2001900198411E1A
:10287000019160B10198411E019140B10198411E42
:10288000019120B10198411E00280191EED120460E
:102890004FF480710122FEF7F9FA0F20019000BF7A
:1028A0000198411E019160B10198411E019140B112
:1028B0000198411E019120B10198411E002801910B
:1028C000EED1002520464FF40071FEF7D9FA00281A
:1028D00040D0FA2D05F10105F4D320464FF40071E4
:1028E0000022FEF7D3FA20464FF480710122FEF752
:1028F000CDFA0F20019000BF0198411E019160B1F7
:102900000198411E019140B10198411E019120B1F1
:102910000198411E00280191EED120464FF400712C
:102920000122FEF7B3FA0F20019000BF0198411E6B
:10293000019160B10198411E019140B10198411E81
:10294000019120B10198411E00280191EED1012092
:1029500002B0B0BD20464FF480710022FEF796FA17
:102960000F2001900198411E019160B10198411E14
:10297000019140B10198411E019120B10198411E81
:1029800000280191EED1002002B0B0BDF0B583B0B7
:1029900040F600450446C4F2010500260F2704E076
:1029A0006400072E06F101064ED2E0B2C2092846A5
:1029B0004FF40071FEF76AFA009700BF0098411EBD
:1029C000009160B10098411E009140B10098411EF5
:1029D000009120B10098411E00280091EED12846B8
:1029E0004FF480710122FEF751FA02970298411EBE
:1029F000029160B10298411E029140B10298411EBD
:102A0000029120B10298411E00280291EED1284681
:102A10004FF480710022FEF739FA01970198411EA8
:102A200000280191BCD00198411E00280191B7D027
:102A30000198411E00280191B2D00198411E002842
:102A40000191EBD1ACE700BF03B0F0BD2DE9F04F31
:102A500085B0019183460DF10E0002A9924600F067
:102A60008BFBBDF90E00BDF91240404202F06CF83C
:102A70000546204602F068F806462846314601F031
:102A800019FD0025C4F23435294602F0F1F840F66C
:102A9000DA77C4F24907394601F044FFBDF9101056
:102AA0000446084602F050F8314601F003FD29467D
:102AB00002F0DEF8394601F035FF0090BDF908005C
:102AC000BDF90A5002F040F843F23336C4F28316DF
:102AD000314601F027FF0746284602F035F8314617
:102AE00001F020FFDBF80050514602F0C1F801462A
:102AF000284601F079FE4EF24819C3F67A79494624
:102B000002F0B6F84DF20A76C3F6A3468046204698
:102B1000314602F0ADF8414601F066FE019DCBF86A
:102B200000002C683846514602F0A2F8214601F018
:102B30005BFE494602F09CF804460098314602F0DC
:102B400097F8214601F050FE286005B0BDE8F08FEF
:102B500010B586B041F21800C4F20200016840F6D8
:102B6000004441F0080101600068C4F2010400F073
:102B70000800019001984FF44070019011200290DC
:102B8000012003900320049001A92046FEF76EF86F
:102B900020464FF400710122FEF778F920464FF4E9
:102BA00080710022FEF772F90F2005900598411EF2
:102BB000059160B10598411E059140B10598411EEF
:102BC000059120B10598411E00280591EED12046BF
:102BD0004FF480710122FEF759F90F20059000BFD4
:102BE0000598411E059160B10598411E059140B1BF
:102BF0000598411E059120B10598411E00280591B8
:102C0000EED120464FF480710022FEF73FF90F20ED
:102C1000059000BF0598411E059160B10598411EC1
:102C2000059140B10598411E059120B10598411EBE
:102C300000280591EED120464FF480710122FEF765
:102C400025F90F20059000BF0598411E059160B140
:102C50000598411E059140B10598411E059120B18E
:102C60000598411E00280591EED120464FF4807151
:102C70000022FEF70BF90F20059000BF0598411EBA
:102C8000059160B10598411E059140B10598411E1E
:102C9000059120B10598411E00280591EED12046EE
:102CA0004FF480710122FEF7F1F80F20059000BF6C
:102CB0000598411E059160B10598411E059140B1EE
:102CC0000598411E059120B10598411E00280591E7
:102CD000EED120464FF480710022FEF7D7F80F2086
:102CE000059000BF0598411E059160B10598411EF1
:102CF000059140B10598411E059120B10598411EEE
:102D000000280591EED120464FF480710122FEF794
:102D1000BDF80F20059000BF0598411E059160B1D8
:102D20000598411E059140B10598411E059120B1BD
:102D30000598411E00280591EED120464FF4807180
:102D40000022FEF7A3F80F20059000BF0598411E52
:102D5000059160B10598411E059140B10598411E4D
:102D6000059120B10598411E00280591EED120461D
:102D70004FF480710122FEF789F80F20059000BF03
:102D80000598411E059160B10598411E059140B11D
:102D90000598411E059120B10598411E0028059116
:102DA000EED120464FF480710022FEF76FF80F201D
:102DB000059000BF0598411E059160B10598411E20
:102DC000059140B10598411E059120B10598411E1D
:102DD00000280591EED120464FF480710122FEF7C4
:102DE00055F80F20059000BF0598411E059160B170
:102DF0000598411E059140B10598411E059120B1ED
:102E00000598411E00280591EED120464FF48071AF
:102E10000022FEF73BF80F20059000BF0598411EE9
:102E2000059160B10598411E059140B10598411E7C
:102E3000059120B10598411E00280591EED120464C
:102E40004FF480710122FEF721F80F20059000BF9A
:102E50000598411E059160B10598411E059140B14C
:102E60000598411E059120B10598411E0028059145
:102E7000EED120464FF480710022FEF707F80F20B4
:102E8000059000BF0598411E059160B10598411E4F
:102E9000059140B10598411E059120B10598411E4C
:102EA00000280591EED120464FF480710122FDF7F4
:102EB000EDFF0F20059000BF0598411E059160B100
:102EC0000598411E059140B10598411E059120B11C
:102ED0000598411E00280591EED120464FF48071DF
:102EE0000022FDF7D3FF0F20059000BF0598411E7B
:102EF000059160B10598411E059140B10598411EAC
:102F0000059120B10598411E00280591EED120467B
:102F10004FF480710122FDF7B9FF0F20059000BF2B
:102F20000598411E059160B10598411E059140B17B
:102F30000598411E059120B10598411E0028059174
:102F4000EED120464FF480710122FDF79FFF20460D
:102F50004FF400710122FDF799FF06B010BD00008B
:102F6000B0B5FFF7F5FD4FF4FA70FDF76BFE752075
:102F700000F046F808B1FF2826D16420FDF762FE74
:102F8000752000F03DF808B1FF281DD16420FDF741
:102F900059FE752000F034F8FF2800D0A0B9642055
:102FA000FDF750FE752000F02BF8FF2800D058B92F
:102FB00064206425FDF746FE752000F021F84FF0EF
:102FC0000104B8B1FF2815D06B200021002400F0C7
:102FD000FDF91920072100F0F9F91A20032100F06A
:102FE000F5F91B20182100F0F1F91C20002100F058
:102FF000EDF932252846FDF725FE2046B0BD00003C
:10300000B0B582B00446FFF7C7FBD020FFF7BEFC87
:10301000FFF71EFC20B1FF24204602B0B0BD00BF68
:103020002046FFF7B3FCFFF713FC18B1FF2420463E
:1030300002B0B0BDFFF7B0FBD120FFF7A7FCFFF750
:1030400007FC18B1FF24204602B0B0BD40F6004591
:10305000C4F20105FFF790F9044628464FF40071C9
:103060000122FDF713FF0F20019000BF0198411EC0
:10307000019160B10198411E019140B10198411E3A
:10308000019120B10198411E00280191EED12846FE
:103090004FF480710122FDF7F9FE0F20019000BF6F
:1030A0000198411E019160B10198411E019140B10A
:1030B0000198411E019120B10198411E0028019103
:1030C000EED128464FF480710022FDF7DFFE0F207D
:1030D000019000BF0198411E019160B10198411E0D
:1030E000019140B10198411E019120B10198411E0A
:1030F00000280191EED128464FF400710022FDF71F
:10310000C5FE28464FF480710122FDF7BFFE0F2057
:10311000019000BF0198411E019160B10198411ECC
:10312000019140B10198411E019120B10198411EC9
:1031300000280191EED128464FF400710122FDF7DD
:10314000A5FE0F20019000BF0198411E00280191AB
:103150003FF462AF0198411E002801913FF45CAF3B
:103160000198411E002801913FF456AF0198411E7D
:1031700000280191E8D14FE72DE9F04385B040F6F2
:10318000004688468146C4F20106FFF705FBD020C1
:10319000FFF7FCFBFFF75CFB3B20FFF7F7FBFFF7BC
:1031A00057FBFFF7F9FAD120FFF7F0FBFFF750FBD1
:1031B00000270DF102040F2503E000BF01370D2F9A
:1031C00050D0FFF7D9F8E05530464FF40071002297
:1031D000FDF75CFE049500BF0498411E049160B1A8
:1031E0000498411E049140B10498411E049120B1FD
:1031F0000498411E00280491EED130464FF48071AE
:103200000122FDF743FE04950498411E049160B12C
:103210000498411E049140B10498411E049120B1CC
:103220000498411E00280491EED130464FF480717D
:103230000022FDF72BFE04950498411E00280491FE
:10324000BCD00498411E00280491B7D00498411EB8
:1032500000280491B2D00498411E00280491EBD1BB
:10326000ACE700BFFFF788F807468DF80F0030463F
:103270004FF400710122FDF709FE0F20049000BFFA
:103280000498411E049160B10498411E049140B11C
:103290000498411E049120B10498411E0028049115
:1032A000EED130464FF480710122FDF7EFFD0F2083
:1032B000049000BF0498411E049160B10498411E1F
:1032C000049140B10498411E049120B10498411E1C
:1032D00000280491EED130464FF480710022FDF7B2
:1032E000D5FD0F20049000BF0498411E049160B1E9
:1032F0000498411E049140B10498411E049120B1EC
:103300000498411E00280491EED130464FF400711C
:103310000022FDF7BBFD30464FF480710122FDF71E
:10332000B5FD0F20049000BF0498411E049160B1C8
:103330000498411E049140B10498411E049120B1AB
:103340000498411E00280491EED130464FF40071DC
:103350000122FDF79BFD0F20049000BF0498411E41
:10336000049160B10498411E049140B10498411E3B
:10337000049120B10498411E00280491EED1BDF8BB
:103380000200BDF8041000BA000CA9F8000008BA49
:10339000BDF80610000CA9F8020008BABDF80A1022
:1033A000000CA9F8040008BABDF80C10000CA8F82D
:1033B000000008BA9DF80E10000CA8F8020047EAB9
:1033C0000120A8F8040005B0BDE8F083B0B582B0D4
:1033D0000C460546FFF7E0F9D020FFF7D7FAFFF7D4
:1033E00037FA58B92846FFF7D1FAFFF731FA28B96A
:1033F0002046FFF7CBFAFFF72BFA18B1012002B0F5
:10340000B0BD00BF40F60044C4F2010420464FF4B2
:1034100000710022FDF73AFD20464FF48071012231
:10342000FDF734FD0F2000900098411E009160B11F
:103430000098411E009140B10098411E009120B1BA
:103440000098411E00280091EED120464FF40071F3
:103450000122FDF71BFD0F20019000BF0198411EC6
:10346000019160B10198411E019140B10198411E46
:10347000019120B10198411E00280191EED1002058
:1034800002B0B0BDFEE700002DE9F04140F280043B
:10349000C2F2000467680D460021064640F6004867
:1034A000C4F28C213846C4F2010801F013FAD8BBEB
:1034B0000021CCF28C21384601F013FAA0B340462B
:1034C00020210122FDF7E2FCA6F1A00000EAE67748
:1034D000002EA5F1A000C8BF06F1A00700EAE5761E
:1034E000002DC8BF05F1A006002F25D540464FF49A
:1034F00080510022FDF7CAFC40464FF400510122E2
:10350000FDF7C4FC7F4240464FF48041002E24D595
:103510000022FDF7BBFC40464FF400410122FDF7BD
:10352000B5FC764222E000BF002740462021002261
:103530006761FDF7ABFC002640464FF48051012245
:10354000FDF7A4FC40464FF400510022FDF79EFC1D
:1035500040464FF48041002EDAD40122FDF796FC5C
:1035600040464FF400410022FDF790FC40F2BC00C1
:10357000C2F2000000684FF41671B7F5167FA8BFBD
:103580000F46B6F5167FB8BF314647630164BDE804
:10359000F0810000FEE70000704700007047000067
:1035A000FDF780BC7047000040F20410C2F200003A
:1035B000FEF752BA80B58268D1E900E322F0770CB9
:1035C00023F0070242EA0C0242EA0E0C4FEA3312E1
:1035D000072AC0F808C009D84FF0000CDFE802F055
:1035E000040404040A1E344A604680BD4FF0010CF6
:1035F000604680BDBEF1050F04BF012080BD026A98
:10360000036A23F0010303628369096923F0F0036D
:1036100043EA011181610262002080BDD1F808C037
:103620000969036A026A22F001020262826922F0D9
:10363000F00242EA011123F00A0242EA0C0281611F
:103640000262002080BD00BFD1F808C00969036A8A
:10365000026A22F010020262826922F4704242EA97
:10366000013123F0A00242EA0C12816102620020C3
:1036700080BD00BFD1E902C30969826843EA0C0337
:1036800022F47F4243EA012111438160002080BD82
:10369000FEE700009CB0FDF713FC09AC201D2421BF
:1036A000FCF798FE0220099001200D9010200025C3
:1036B0000E9020461795CDE91555CDE91355109577
:1036C000FDF7ACFD20B1EFF3108072B6FEE700BF4E
:1036D0000F20CDE9130513A80021CDE91555179545
:1036E000FDF794FC20B1EFF3108072B6FEE700BF47
:1036F00041F21800C4F20200016840F6004441F0B3
:10370000200101600168C4F2010401F02001099167
:1037100009990168002241F00401016001684FF23B
:10372000200501F00401099109990168002641F082
:103730000801016000684FF2200100F008000990C4
:1037400009982046FDF7A2FB0995022009AD012743
:103750000C9020462946CDE90A76FDF787FA4FF40A
:10376000406009A9C1C120462946FDF77FFA40F211
:10377000BC0004F50051C2F2000040F2E7331B9692
:10378000CDE91966CDE91766CDE91566CDE9136671
:10379000CDE90F66CDE90D66CDE90B66CDE9096689
:1037A000472280E84600C0E90336C0E90566FEF717
:1037B0001DFB28B1EFF3108072B600BFFEE700BF1B
:1037C00040F2BC00C2F200001AA9FDF741FF28B187
:1037D000EFF3108072B600BFFEE700BF60201390C9
:1037E0000020CDE91400CDE91600CDE9180040F223
:1037F000BC00C2F2000013A90022FEF7F5F928B1BF
:10380000EFF3108072B600BFFEE700BF40F2BC00CD
:10381000C2F2000013A90C22FEF7E6F920B1EFF383
:10382000108072B6FEE700BF4FF400500E9040F2D9
:10383000BC000025C2F2000009A90D95CDE90B5589
:10384000CDE909551095FDF7DDFE28B1EFF31080A5
:1038500072B600BFFEE700BF40F2BC00C2F200003B
:10386000FEF798F940F20410C2F200004FF08041D8
:103870004FF6FF73CDE91555CDE91355CDE91A552E
:10388000472280E82600C0E903358561FEF730F85D
:1038900020B1EFF3108072B6FEE700BF042009905C
:1038A00050200A9040F204100025C2F2000009A93D
:1038B000CDE90B550D95FEF7BFFB28B1EFF3108056
:1038C00072B600BFFEE700BF0120CDE9140540F24B
:1038D0000410C2F2000013A9002213951695FDF7FB
:1038E00047FF28B1EFF3108072B600BFFEE700BFBC
:1038F0000220CDE9130040F20410C2F2000013A927
:103900000422FDF735FF18B1EFF3108072B6FEE721
:1039100040F204100025C2F200001AA9CDE91A55A0
:10392000FDF796FE20B1EFF3108072B6FEE700BF00
:1039300040F24C1004F53051C2F200000C234FF459
:10394000E13280E82600C0E90355C0E90535C561CC
:10395000FEF7A0FB20B1EFF3108072B6FEE700BFC8
:10396000FFF7FEFA40F2800AC2F2000AA0B300207C
:10397000BEA18AF8000040F29415D1E90460C2F2B9
:1039800000050F1DC5E9046091F82600DFF8DCC2D0
:103990008CCFD1E906E8D1F82090898C85F82600F3
:1039A0002846C5E900C2C5E90237C5E906E8C5F8F9
:1039B0002090A984FCF7EFFC82B240F24C10C2F2D6
:1039C000000029466423FEF713FC20462021002234
:1039D000FDF75CFA23E000BF01208AF8000040F206
:1039E000941545F24D00C2F20005C3F2556043F252
:1039F000305144F64F32C2F23001C0F6215285E810
:103A000007000A20A8812846FCF7C5FC82B240F2D4
:103A10004C10C2F2000029466423FEF7E9FB40F295
:103A2000BC05C2F2000528460021FEF779FA2846B7
:103A30000C21FEF775FAFDF72FFA80460AF1040013
:103A400040F2000B04900AF10800C2F2000B039050
:103A500009E000BF00200021FFF716FD20462021CD
:103A60000022FDF713FA9AF800000028F2D0FDF7C3
:103A700013FAA0EB08000A2804D29AF800000028E4
:103A8000F1D1E7E7FDF708FAA0EB080001F074F8C0
:103A90000021C4F27A4100F045FF0546FDF7FCF92C
:103AA0008046DDE903102A46FEF7D0FFDAF8100061
:103AB000DAF804700790DBE90010DAF8146005907A
:103AC000DBF808000690DBF80C000890384601F09F
:103AD000A5F9002181463846C4F2F01100F00FFF2D
:103AE000002183463846CCF2F01100F0F3FE054683
:103AF0004846314600F078FE0746002D08BF2F46A5
:103B00000021BBF1000F08BF5F463846C4F27A417E
:103B100000F0E0FE002100281CBF0027C4F27A4715
:103B20003846CCF27A4100F0EAFE00281CBF00279C
:103B3000CCF27A4705994846CAF8147001F098F813
:103B400005460698394601F093F80146284600F0EC
:103B50004BFE05460798494601F060F90146089872
:103B600001F086F8294601F059F9CAE9030920460F
:103B70004FF48061FDF784F9054620464FF400615B
:103B8000FDF77EF9002D08BF012815D085F0010151
:103B900040F2000BC2F2000B0843DBF810504FF06C
:103BA000000018BF05464FF07E5004BF49F69A103A
:103BB000C3F659700CE000BF40F2000BC2F2000BDC
:103BC000DBF8100080F0004549F69A10C3F65970F2
:103BD000DAF80C10CAF8185001F04AF829460646DF
:103BE00000F002FE00F094FF07463046294601F03F
:103BF00015F900F08DFF01463846FFF745FCDAF86D
:103C00003800411C1428CAF83810FFF62CAFDAF837
:103C10000400DAF80C50DAF8186000F0B9FD074635
:103C20002846894600F074FF0546304600F070FFD4
:103C3000009540F29415C2F200050646284615A1EB
:103C40003A464B460196FCF7CFFA2846FCF7A3FB11
:103C500082B240F24C10C2F2000029460A23FEF75D
:103C6000C7FA0020CAF83800FDE600BF4D505536AF
:103C7000303530204641494C21204944206572723C
:103C80006F72206F722062757320737475636B2E70
:103C90000D0A0000416E676C653A20252E326620C1
:103CA0007C2050574D3A202564207C205374656554
:103CB000723A2025640D0A005FEA400C08BF91F0BB
:103CC000000F4FEA8C234FEAC12243EA51514FEAD9
:103CD0001C5018BF00F5F0404FEA300018BF41F00B
:103CE00000415FEA6C5C00F02980BCF1FF3F08BF37
:103CF00040F080407047130C06BF12044FF0100CC8
:103D00004FF0000C130E04BF12020CF1080C130F3D
:103D100004BF12010CF1040C930F04BF92000CF1CC
:103D2000020CD30F04BF52000CF1010C11464FF0EE
:103D30000002A0F11F00A0EB0C00704711F0004F33
:103D400008BF704731F000413FF4D5AF0B0C06BF00
:103D500009044FF0100C4FF0000C0B0E04BF0902C9
:103D60000CF1080C0B0F04BF09010CF1040C8B0FB4
:103D700004BF89000CF1020CCB0F04BF49000CF109
:103D8000010CCCF1200322FA03F341EA030102FA09
:103D90000CF2A0EB0C0000F10100704723F07F470C
:103DA00020F07F4C80EA030000F00040ACEB0703FA
:103DB00003F57C5303F1FF032DE9804909B44FEA71
:103DC000144324EA03484FEA154B25EA0B4E0FF241
:103DD000042606EB13273E7803FB0667C7F50007AA
:103DE00007FB06F64FEAD64606F102064FEA5437BD
:103DF00007FB066CCCF1005C4FEA1C472CEA074C31
:103E00000CFB06F507FB06F404EB15464FEA961685
:103E100049085FEA320234BF00204FF000404FEA09
:103E2000D13706FB07FC4FEA1C4C0CFB0BF7D21BEF
:103E300003FB0CF761EB07010CFB0EF7B0EB07403F
:103E400072EB17420CFB08F734BFA2EB0742B2EB50
:103E5000074261EB17414FEA0C444FEA910706FB1A
:103E600007FC4FEA1C4C0CFB0BF7B0EBC74072EBA6
:103E7000573203FB0CF734BFA2EBC742B2EBC74289
:103E800061EB57310CFB0EF7B0EBC70072EB5772CA
:103E90000CFB08F734BFA2EBC702B2EBC70261EB21
:103EA00057714FEA816141EA92114FEA826242EA18
:103EB00090124FEA806004EBCC04039F4FEAD137A5
:103EC00006FB07FC4FEA1C4C0CFB0BF7D21B03FB59
:103ED0000CF761EB07010CFB0EF7B0EB074072EB40
:103EE00017420CFB08F734BFA2EB0742B2EB0742C4
:103EF00061EB17414FEA8C5504EB9C244FEA910784
:103F000006FB07FC4FEA1C4C0CFB0BF7B0EBC74061
:103F100072EB573203FB0CF734BFA2EBC742B2EB94
:103F2000C74261EB57310CFB0EF7B0EBC70072EBE9
:103F300057720CFB08F734BFA2EBC702B2EBC70203
:103F400061EB57714FEA816141EA92114FEA826257
:103F500042EA90124FEA806015EB4C2544F10004D0
:103F60004FEAD13706FB07FC4FEA1C4C0CFB0BF762
:103F7000D21B03FB0CF761EB07010CFB0EF7B0EB58
:103F8000074072EB17420CFB08F734BFA2EB074265
:103F9000B2EB074261EB17414FEA813141EA9241AE
:103FA0004FEA823242EA90424FEA80304FEA0C7682
:103FB00015EB1C1544F1000448EA03434EEA0B4894
:103FC0004FF0000EB2EB080C71EB030724BF624602
:103FD00039464EEB0E0E4FF0000B0018524149418E
:103FE0004BEB0B0BB2EB080C71EB03077BF1000BF7
:103FF00024BF624639464EEB0E0E4FF0000B001800
:10400000524149414BEB0B0BB2EB080C71EB030730
:104010007BF1000B24BF624639464EEB0E0E51EA8F
:10402000020718BF46F0010616EB0E7655F10002A6
:1040300054F1000103D5BDE88901BDE80088BDE861
:104040008901BDE80048B619524141EB0101A3F1D5
:104050000103704780807F7E7D7C7B7A79787776DC
:1040600076757473727171706F6E6E6D6C6C6B6A55
:104070006A696868676666656464636362616160F3
:10408000605F5F5E5E5D5D5C5C5B5B5A5A59595870
:1040900058575756565555555454535352525251DA
:1040A000515050504F4F4F4E4E4D4D4D4C4C4C4B30
:1040B0004B4B4A4A4A494949484848474747474677
:1040C00046464545454444444443434343424242B3
:1040D000424141419C46002B30D477002BD04FEA1F
:1040E00037071CB503B44FF010004FF01001BAF1C0
:1040F000000F06D0BCF1000FDCBF40F0080040F01C
:1041000008014FF000000FBCBDE810400BF1010B9F
:10411000BBF1010F08BF5FEA170722BF12F10102CE
:1041200011F101014FF0004143F1000300F00040A4
:1041300043EA00007047F9D35708D0E746EA06463D
:104140004FEA164613F1400F1FDD13F1200FDFBFBA
:1041500016430A46002120335B42BED0C3F120073C
:1041600046EA06464FEA164602FA07F746EA070607
:1041700022FA03F2C3F1200701FA07F742EA070225
:1041800021FA03F14FF00003A7E746EA020646EAE8
:1041900006464FEA164646EA0106BCBF46EA064610
:1041A000360C4FF000034FF000024FF0000194E78F
:1041B0002DE9804C70B49A46934691E8380007C8C0
:1041C00031EA400C48BF34EA430C03D5FFF7E6FD63
:1041D000FFF780FFF0BCBDE8008C2DE9804C70B487
:1041E0009A46934691E8380007C810F0804F08BF00
:1041F00013F0804F03D100F005F8FFF76BFFF0BC20
:10420000BDE8008C20F07F4723F07F4C80EA03005C
:1042100000F0004007EB0C03A3F57C53A3F1FE0371
:1042200092F0000F00F0B38095F0000F00F077805F
:104230002DE901494FEA114021EA00484FEA1446AE
:1042400024EA064700FB06FC08FB06F607FB08F815
:1042500018EB06484CEB164C00FB07F718EB074829
:104260004CEB17404FEA124B22EA0B4E4FEA154631
:1042700025EA06470BFB06FC0EFB06F607FB0EFEC7
:104280001EEB064E4CEB164C0BFB07F71EEB074ED6
:104290004CEB174B18EB0B0840F1000018EB0E0B22
:1042A00058EB000840F100008F1A4FF000014FF06A
:1042B00000063CBFC943661B14BFB5EB040C0021CC
:1042C0003CBFC943F61B4FEA174427EA04454FEAAF
:1042D0001C472CEA074C04FB076205FB07F70CFBA5
:1042E00005F616EB074642EB174204FB0CFC16EBF7
:1042F0000C4642EB1C421BEB060658EB0202414106
:104300004EEA8E0E46EA9E0601D5BDE80189B61931
:10431000524141EB0101A3F10103BDE801894FEADC
:10432000144524EA05464FEA114721EA074C05FBEC
:1043300007F406FB07F70CFB06F111EB074144EB12
:10434000174405FB0CFC11EB0C4144EB1C444FEAF9
:10435000124722EA074C05FB07F206FB07F70CFBA6
:1043600006F616EB074642EB174205FB0CFC16EB74
:104370000C4642EB1C456A1854F1000148BF7047D7
:10438000B619524141EB0101A3F10103704795F0C9
:10439000000F37D04FEA114221EA02464FEA144794
:1043A00024EA074C02FB07F106FB07F70CFB06F4B7
:1043B00014EB074441EB174102FB0CFC14EB0C44DB
:1043C00041EB1C414FEA154725EA074C02FB07F574
:1043D00006FB07F70CFB06F616EB074645EB174501
:1043E00002FB0CFC16EB0C4645EB1C42121951F17A
:1043F000000148BF7047B619524141EB0101A3F1DA
:10440000010370474FEA144524EA05464FEA114775
:1044100021EA074C05FB07F106FB07F70CFB06F248
:1044200012EB074241EB174105FB0CFC12EB0C426F
:1044300051EB1C414FF0000648BF7047921841EB0A
:104440000101A3F101037047490050EAC12018BFE0
:1044500004204A0D18BF40F0010040F2FF72B2EB99
:10446000515F08BF40F00200012808BF05207047D7
:104470004100080218BF04200A0E18BF40F00100D6
:104480004FF07F4232EA010108BF40F002000128EC
:1044900008BF0520704700F0A7B96FF05E0108075C
:1044A00000F065BD30380A2801D201207047002095
:1044B000704700002DE9F0474FF0684202EB4003DF
:1044C0000C460546B3F1654F3CBF02EB4102B2F129
:1044D000654F80F0CD8000BFC0F3C752C1F3C75312
:1044E000D21A1B2A06DD10F0004F14BF87488848F7
:1044F000BDE8F08712F11A0F2FDA11F0004F06D045
:1045000010F0004F0CBF83488348BDE8F087214678
:10451000284600F007FA0646FFF7AAFF042808BF5E
:10452000FFF7BBFF2846FFF7A3FF05462046FFF72E
:104530009FFF04463046FFF79BFF042D18BF052D53
:1045400008D1042C18BF052C04D1002804BF022078
:10455000FBF76FFF3046BDE8F0874200B2EB410F3A
:1045600025D910F0004F19BF6C4F6D4E6D4F6E4E38
:10457000224685F0004415460A4680F00041104668
:104580000A1A5200B2F1807F3ED248406749DFF8F4
:10459000A0A110F0004F18D04FF03F48384600F06F
:1045A0003DFC07465146304600F038FC17E011F05C
:1045B000004F04BF00263746E2D010F0004F19BF6D
:1045C0005C4F5D4E5D4F5E4EDAE74FF07C583846EB
:1045D00000F00AF907465146304600F005F9064654
:1045E0004146284600F044FB214600F0FDF8824693
:1045F0002146404600F03CFB294600F005FC5146B0
:1046000000F090F9044604E02146284600F08AF9BB
:104610000446014600F02CFB80464A4900F028FB86
:10462000494900F0E1F8414600F022FB474900F01B
:10463000DBF8414600F01CFB454900F0D5F8414647
:1046400000F016FB434900F0CFF8054641462046EE
:1046500000F00EFB294600F00BFB314600F0C4F8D9
:10466000214600F0C1F83946BDE8F04700F0BCB87B
:104670004FF07F42B2EB400F28BFB2EB410F03D2A5
:10468000BDE8F047FFF707BF40EA01035B0008BF42
:1046900044F0FF410AD0B2EB400F08BFB2EB410F2C
:1046A00006D125F0804024F0804105460C4613E7F2
:1046B000B2EB400F12BF5FEA410345F0FF4004F048
:1046C00000413FF409AFB2EB410F12BF5FEA400275
:1046D00005F0004044F0FF413FF4FEAE4A0092EA8C
:1046E00040033FF5F9AE002AACBF4FF09F464FF0B4
:1046F0003E56314600F0BCFA05463146204600F0F1
:10470000B7FA044628462146E6E60000DB0FC9BF9B
:10471000DB0FC93FDB0F4940DB0F49C00000C9BFB9
:1047200022AAFDB90000C93F22AAFD390060ED3E72
:10473000C30ACE37000049C022AA7DBA0000494012
:1047400022AA7D3A2DAD65BD8FB8D53D0FB511BEFE
:1047500061C84C3EA8AAAABE10B500290AD00878A4
:10476000002807D005487844FCF720FA002801D03B
:10477000002010BD0248784410BD0000660900000A
:104780005E0900000808A0F500114FEA31017047EA
:1047900043004FEAD30C4FEA3C0C43401FBF400795
:1047A0000CF1605113F0FE4F70471CF0006F03D105
:1047B0000CF00041002070470CF0004343EA5070B9
:1047C00040EACC0010B500F0D4FA00BF000000921F
:1047D0004FEA0001FFF7D6BF4FF00041A1F50021DD
:1047E0004FF000007047000090EA010F48BF81F0D1
:1047F000004100F11A83421A3CBF801A89184FEA1F
:10480000D052A2EBD1534FF07F4C1CEA410F18BF9E
:104810009CEA026F00F03B804FF0004C4CEA002015
:104820004CEA012121FA03FC10EB0C0C1ED202F120
:10483000FF325FEA1C2040EBC25038BF70471CF0CB
:104840007F0F4FEA400C18BFBCF17F4F38BF704755
:10485000C3F12003994008BF20F00100BCF17F4F55
:1048600038BF7047A0F1C04000F0C9BA4FEA3C0021
:10487000000A40EBC25028BF1CF0FF0F4FEA400C6B
:10488000E6D018BFBCF17F4F38BF7047EAE79CEA1B
:10489000026F05D010EA5C0F08BF00F000407047BF
:1048A00010B500F066FA00BF64FBBE3E014800F0A0
:1048B0002CBB00BF0000C07F10B500F0F5F80CBFA6
:1048C0000120002010BD10B500F0EEF814BF01204B
:1048D000002010BD10B500F063F98CBF012000204E
:1048E00010BD10B500F05CF92CBF0120002010BDF8
:1048F00010B500F089F994BF0120002010BD10B55B
:1049000000F082F934BF0120002010BD401058BFD4
:10491000C0F14040491058BFC1F140418142EFF31E
:10492000008070474FF47F0C1CEAD0121EBF1CEAB7
:10493000D11392EA0C0F93EA0C0F00F0858090EAF5
:10494000010F48BF42F4807240F4000C41F40000B3
:104950002CF07F4120F07F4000B5A2EB03028142A2
:104960000FF2081CACEB504E9EF800E0C0F10000C6
:104970004FEA4E0E00FB0EFC38BF49004FEA2C1CDC
:104980000CFB0EF34FEACE1E0EEB635E4FEA112CCA
:104990000EFB0CFC4FEAC1214FEA1C5300FB031134
:1049A00002F5FA024FEA112C0EFB0CFC4FEA013122
:1049B0004FEADC4C00FB0C1142EB2242C14228BF03
:1049C00009184CEB03335DF804EB10EB410143EBAA
:1049D000C250B2F57C0F38BF704729D512F0F00FE6
:1049E0001CBF00F1C04000F000407047008182838E
:1049F0008485868788898B8C8D8E8F9192939596EE
:104A000097999A9C9D9FA0A2A3A5A7A8AAACAEB077
:104A1000B2B3B5B7B9BCBEC0C2C5C7C9CCCED1D47C
:104A2000D7D9DCDFE2E6E9ECF0F3F7FAFE000000AC
:104A30004FEA400C0CF1807CBCF17E4F28BF7047E0
:104A4000B0F1C04000F0DBB90CEAD11390EA010FDD
:104A500048BF42F48072624538BF634507D213F401
:104A60007F0F16D080EA010000F00040704710B5BB
:104A700000F07FF9097EFC3E00F005B880EA0100F5
:104A800000F00040704780EA010000F0004000F0B4
:104A9000B6B912F47F0F04BF0248704780EA0100E4
:104AA00000F0ADB90000C07F50EA010C00F11380A6
:104AB0001CF5000F58BFBCF5000F01D488427047A9
:104AC00007D710F5000F58BF11F5000F15D4884215
:104AD0007047894270471CF5000F04D5BCF5000FE4
:104AE000F7D5814270474FF0807C1CEB400F38BFF8
:104AF0001CEB410F01D28142704710B500F039F92B
:104B0000922449004FF000504FF08051FFF7FEBE55
:104B100041000B0ED3F19E0208D950F400034FEA76
:104B2000032323FA02F048BF4042704710B500F05B
:104B300020F900BF49922480002070476FF00042A6
:104B400082EA20007047000010F0004148BF404258
:104B5000B0FA80F310FA03F2C3F19D030BD051EACF
:104B6000C35101EB1220530638BF704700F101001A
:104B700008BF20F001007047B0FA80F310FA03F28A
:104B8000C3F19D030AD0D90501EB1220530638BFAB
:104B9000704700F1010008BF20F0010070470000DD
:104BA00050EA010C00F113801CF5000F58BFBCF552
:104BB000000F01D48842704707D710F5000F58BF87
:104BC00011F5000F15D488427047894270471CF5D3
:104BD000000F04D5BCF5000FF7D5814270474FF0A8
:104BE000807C1CEB400F38BF1CEB410F01D281428F
:104BF000704710B500F0BDF8922449004FF0805086
:104C00004FF00051FFF782BE50EA010C00F1138013
:104C10001CF5000F58BFBCF5000F01D48842704747
:104C200007D710F5000F58BF11F5000F15D48842B3
:104C30007047894270471CF5000F04D5BCF5000F82
:104C4000F7D5814270474FF0807C1CEB400F38BF96
:104C50001CEB410F01D28142704710B500F089F87A
:104C6000922449004FF000504FF08051FFF74EBEA4
:104C70004FF47F0C1CEAD0121EBF1CEAD11392EA3B
:104C80000C0F93EA0C0F00F0478090EA010F48BF29
:104C900042F480724FF0004C4CEA00204CEA0121B3
:104CA00002EB0302A0FB0113A2F50002002918BFCA
:104CB00043F001035B0028BF4FEA330342EB22427B
:104CC0005FEA132C4CEBC2502EBFBCEB436FB2F526
:104CD0007C0F70474FEA036CBCF1004F08BF20F017
:104CE0000100B2F57C0F38BF70470BD582F0FF0290
:104CF00012F5803FC8BF704700F1C040D8BF00F038
:104D00000040704700F5000C5FEA4C0C48BF70474C
:104D1000B0F1C04000F073B80CEAD11390EA010F73
:104D200048BF42F48072624538BF634504D280EACE
:104D3000010000F00040704710B500F01AF800BF05
:104D40008900013E00F007B800F009B85FEA410CA5
:104D50005FEA1C6C08D080EA010000F050B85FEAFE
:104D6000400C5FEA1C6CF6D14FF00040A0F58000CB
:104D700070470EF1020E2EF0030E5EF8044B244233
:104D800004D44FEA4102B2F17F4F11D84FEA4003F9
:104D9000B3F17F4F0CD80ED14FEAD07C0CEB4C0C0A
:104DA0000CF1020CB2F17F4F08BF4CEBD17C04E058
:104DB0004FF0080C01E04FEAD17C0CEB4C0324FAD5
:104DC00003F404F00704B4F1040C06D20EEB840CD7
:104DD000BDE810404CF0010C6047DFE80CF007081C
:104DE00002024FF00040A0F5800010BD08464200CE
:104DF00018BFD2F1807288BF00F0004010BDFF21C3
:104E000041EAD050C005704780F0004090EA010FA1
:104E10007FF5F1AC81F0004100F007B890EA010F96
:104E200048BF81F000413FF5E6AC421A04D882F059
:104E30000042A0EB020011444FEAD052A2EBD15342
:104E40004FF07F4C1CEA410F18BF9CEA026F4AD01A
:104E50004FF0004C4CEA00204CEA012121FA03FCFF
:104E6000B0EB0C0C0FD412F0FE0F36D05FEA4C0002
:104E70001DD5001240EBC25038BF70471CF03F0FE9
:104E800018BF70470BE05FEA1C20A2F1010240EB63
:104E9000C25038BF70471CF07F0F18BF7047C3F176
:104EA0002003994014BF401E20F0010070474FEAD4
:104EB0001223800808BF7047B0FA80FCA2EB0C02F6
:104EC000CCF1280C60FA0CF093EA122F04BF00EB2F
:104ED000C25070474FEAC3707047130A5FEADC1094
:104EE00008BF7047F6E79CEA026F04D010EA5C0F37
:104EF00008BF0020704710B5FFF73BFF40DFF63ECC
:104F000081F000407047FBF7CBBB0CF00F03092B7F
:104F100008BF082000F051800A2B0BD0082B18BFC7
:104F2000704708BF1CF0400F0AD04FF000004FF050
:104F3000000170471CF0400F18BF4FF00040704751
:104F40001CF0100F08D000F07F4220F0704342EABE
:104F5000D3014FEA4370704700F0604021F07F4278
:104F600042EA000201F07F4040EA727070474FF061
:104F7000FF0212EAD0521CBF92F0FF038B42C2BF65
:104F8000D14200EBC1507047002A0AD0002B0BD051
:104F900000F000400029A4BF40F0FE4040F40000B3
:104FA000704700F00040704743024FF00B0C18BFF1
:104FB0004CF0806C7FF47AAC70471CF4801F11D0E9
:104FC0001CF4E02F03D06FEACC31490070474FF05A
:104FD0004050EFF3008222F0704242EA000282F376
:104FE000008870474FF0000070470000024000004A
:104FF000000000A00000000005400000000000C804
:10500000000000000C4000000000409C0000000078
:10501000194000000020BCBE000000003440000029
:10502000BFC91B8E00000004B5400000504BCFD01C
:105030006607E2CF010000006C4100003E8251AAE9
:10504000DFEEA73401000000D9420000DCB5A0E289
:105050003A301F97FFFFFFFFB4450000FD25A0C8B1
:10506000E9A3C14FFFFFFFFFFF3F000000000080EA
:1050700000000000FF3F0000000000800000000072
:1050800000000000000000000102030406070809F8
:1050900000000000010203040102020304050607E8
:1050A00008090A0B0C0D0E0F10100000E850000844
:1050B000000000202000000028010008085100081E
:1050C00020000020F80D0000440100081C00000032
:1050D00043000000F8FFFFFF0C0000000E0000007E
:1050E0000F0000002E0000000000C0BF00001842AA
:1050F000CDCC4C3F333333400000C84201000000A8
:085100001000000000127A000B
:04000005080000ED02
:00000001FF
