:020000040800F2
:10000000080E0020D5010008F54B0008092400085F
:10001000F14B0008690C0008114D000800000000B9
:10002000000000000000000000000000FD4B000880
:100030006D0C000800000000F94B0008014C00089E
:10004000EF010008EF010008EF010008EF010008D0
:10005000EF010008EF010008EF010008EF010008C0
:10006000EF010008EF010008EF010008EF010008B0
:10007000EF010008EF010008EF010008EF010008A0
:10008000EF010008EF010008EF010008EF01000890
:10009000EF010008EF010008EF010008EF01000880
:1000A000EF010008EF010008EF010008EF01000870
:1000B000094C0008EF010008EF010008EF010008FB
:1000C000EF010008EF010008EF010008EF01000850
:1000D000EF010008EF010008EF010008EF01000840
:1000E000EF010008EF010008EF01000800F002F83E
:1000F00000F060F814A696E8000CB244B344DA4568
:1001000001D100F057F8BAE80F000FA696E83000CA
:10011000A5EB040504EB0607AAEB0704A7F101070A
:100120004FEA15154FEA3414A4F10104AC4201D38F
:1001300000F040F813F0010F18BFFB1A43F0010361
:1001400000F001F8DBE71847546400007464000015
:10015000103A24BF78C878C1FAD8520724BF30C8F3
:1001600030C144BF04680C60704700007047000055
:100170000023002400250026103A28BF78C1FBD8B0
:10018000520728BF30C148BF0B607047662906F090
:100190003281642900F05280002070471FB500F0C2
:1001A000E9FB04000020002105F04EFDE0601FBDCA
:1001B00010B510BD00F0E2FC1146FFF7EFFF04F0B0
:1001C000A9FD00F000FD03B4FFF7F2FF03BC00F04F
:1001D00043FD00000948804709480047FEE7FEE765
:1001E000FEE7FEE7FEE7FEE7FEE7FEE7FEE7FEE7E7
:1001F00004480549054A064B70470000054C0008B5
:10020000ED00000808020020080E00200808002069
:10021000080800200FB41CB5074B06AA7B446946AA
:100220000090059800F08DFB0020694600F09CFBD3
:100230001CBC5DF814FB0000490700002DE9F041EB
:100240000646002410687529314616A510D0AFF374
:100250000080002802DA404213A507E031688A07CF
:1002600001D512A502E0490704D511A5012401E03A
:10027000AFF3008000210A2206F1240709E0B0FB59
:10028000F2FCB0FBF2F302FB1C003030785418464D
:10029000491C0028F3D123462A463046BDE8F041E8
:1002A00000F0E3B8000000002D0000002B0000006B
:1002B000200000002DE9F0474FF0000A894604466F
:1002C000C0F820A02046E1688847002876D025287D
:1002D00006D0D4E901219047206A401C2062F1E752
:1002E000E168204600258847C4F81CA00646002780
:1002F000C4F818A02A2E09D0304605F04BFB38B3BD
:1003000004EB8708303EC8F8186019E059F8041B60
:10031000204604EB87029161E1688847012F064679
:1003200018D1E069002820DA25F020051DE0D8F872
:10033000180000EB800006EB40003038C8F81800C9
:100340002046E1688847064605F024FB0028EED1E8
:10035000012F0AD02E2E08D12046E16888477F1C45
:100360000646022F45F02005C4DBA069002803DA09
:10037000404245F00105A061E80701D025F01005D5
:10038000B6B1A6F14100192802D8203645F400651F
:100390004A463146204625604D46FFF7F7FE58B1E4
:1003A000012806D0ED1D25F0070000F1080989E7B6
:1003B00004E005F1040985E730468AE7206ABDE8D4
:1003C000F08710B5431C02E010F8011B71B18107E2
:1003D000FAD14FF0013202C88C1A8C4314EAC211D0
:1003E000F9D0C01A0A0603D0C01E10BDC01A10BD35
:1003F0000A0401D0801E10BD0902FCD0401E10BDB1
:100400004FF0000200B5134694469646203922BFAD
:10041000A0E80C50A0E80C50B1F12001BFF4F7AFF8
:10042000090728BFA0E80C5048BF0CC05DF804EBDA
:10043000890028BF40F8042B08BF704748BF20F848
:10044000022B11F0804F18BF00F8012B7047704746
:100450007047704710B500F091FA006810BD10B5F4
:10046000044600F08BFA046010BD2DE9F0470D46FC
:1004700099469246044600F124080168880604D58E
:10048000E06921F01001216000E00120A84201DDB7
:10049000471B00E00027A1697A1902EB0900081A3E
:1004A000A0612078C00602D42046AFF30080002669
:1004B00008E0D4E901211AF806009047206A401CA0
:1004C000761C20624E45F4DB2078C0060AD5204613
:1004D000AFF3008006E0D4E9012130209047206A84
:1004E000401C2062381EA7F10107F4DC07E0D4E9C4
:1004F000012118F805009047206A401C2062281E40
:10050000A5F10105F3DC2046AFF30080207800065A
:1005100002D50220BDE8F0870120FBE72DE9FF4F5F
:100520000C461E464FF0FF378BB0D2E90001DDF8D4
:1005300060800A908A46C1F30A5505B93D460021FC
:1005400008464FF00000BAF1000F00F4400005DA51
:1005500000EB80004FF4400101EA50004FEA90594F
:10056000B9F1010F00DDB9460A9850EA4A000ED0F1
:1005700044F61050A5F2FF3545432F14B8F1000F93
:100580001ED07542291E1EDDC9F100021CE0B8F123
:10059000010F4FF0000001D0302103E0F24305E0ED
:1005A0002154401CB042FBDB304600220021215484
:1005B0000B99C1F80880C1E900200FB0BDE8F08FA9
:1005C000BD1B6D1CDEE74A4600DA694206A800F052
:1005D0005FFA06AB93E8070003AB83E807005046D9
:1005E0000A9904F0E1FD8DE80700A0F500501F38DE
:1005F00000900398002D0ADD42F21F014A4608448C
:10060000002303A90390684605F04AF809E0A0F525
:1006100000504A461F38002303A90390684605F09E
:1006200054F88DE807000004000C03D04FF0FF30B1
:10063000410800E01046B8F1000F03D000220092FC
:1006400015461EE0751E05D400F09CF93032625547
:100650006D1EF9D5B3460122084302D000227F1C4B
:1006600004E02078302801D100227F1E002A09975B
:1006700084D01DE0112D07DA00F084F93032625584
:100680006D1C50EA0102F5D1084302D00098C8B1B0
:100690000EE00021681E05E0235C625C6354225476
:1006A000401E491C8142F7DBAB46A81B401E099047
:1006B000002004F80B000B98099AC0F80880C0E9E4
:1006C000002B7AE711264FF0000857E72DE9F04F8D
:1006D00088460446D21D22F0070191B0D1E90001FD
:1006E000CDE90A0105F028F902460B98C00F01D0A8
:1006F0002D2007E02068810701D52B2002E0202172
:1007000001EAC000032A099001D0072A05DB03464D
:100710004146204600F07CF90BE12078800601D5A7
:10072000E06900E00620B8F1650F814606D0B8F117
:10073000660F18D0B8F1670F70D131E00020B9F121
:10074000110F009001DB112301E009F101030AAA56
:1007500001A90CA8FFF7E2FEDDE90C70002609F103
:100760000105834647E001204B4600904FF00047CB
:100770000AAA01A90CA8FFF7D1FEDDE90DB00C997A
:100780005D46002610B909F101000D18B9EB05000E
:1007900003D4C0F1FF3609F10105A5EB09002BE0F8
:1007A000B9F1010F01DA4FF001090020B9F1110F81
:1007B0000090484601DD112300E003460AAA01A982
:1007C0000CA8FFF7ABFEDDE90C704D460026834612
:1007D000207800070AD4AB4500DA5D4601A8012D58
:1007E00004DD411911F8011C302907D04F4502DA08
:1007F00017F1040F04DA012082460FE06D1EEEE7C8
:10080000002F02DCED1B3E4403E0781CA84200DD13
:100810007D1CB81B00F1010A4FF00047207800074B
:1008200003D4AA4501DB4FF0FF3A0021B7F1004F96
:100830000DF143088DF8431024D002202B23002F04
:1008400001DA7F422D230A21021EA0F1010000DC03
:100850005FB197FBF1FC97FBF1F201FB1C7C1746A3
:100860000CF1300C08F801CDEEE7A8F1010003709F
:100870002188090501D5452100E06521A0F1010885
:1008800000F8011C09980FA9A1EB0807FF1D00B192
:100890000120411901EBEA70A1693844081A401E91
:1008A000A0612078C00602D42046AFF300800998EA
:1008B00028B1D4E901219047206A401C20622078A9
:1008C000C00622D52046AFF300801EE0002E04DBD8
:1008D000B34502DD01A8805D00E03020D4E90121AC
:1008E0009047206A401C2062761CAAF101005FEA52
:1008F000000A0AD100F03EF8C0680168405CD4E903
:1009000001219047206A401C2062281EA5F10105A4
:10091000DCDC07E0D4E9012118F8010B9047206ADC
:10092000401C2062381EA7F10107F3DC2046AFF31C
:100930000080032011B041E601694A1C0261087879
:10094000704700B58FB0CDE901310021059105490F
:100950007944CDE9031011466846FFF7ABFC0FB0B0
:1009600000BD0000E5FFFFFF0A6802F8010B0A6006
:10097000704700000048704738000020004870476A
:100980001800002030B5B0F10A0271F100034FEAFF
:10099000900E4EEA817EB0EB0E0061EB91014FEAC2
:1009A000101E4EEA017E10EB0E0041EB11114FEAD2
:1009B000102E4EEA016E10EB0E0041EB11214FEAB2
:1009C000104E4EEA014E10EB0E0041EB1141401863
:1009D00041F100014FEAD00040EA41704FEAD101F5
:1009E0004FEA810444EA907410EB800544EB010463
:1009F0006D1944EB0404521BA3414FF0000348BFA0
:100A00000A3200D530BD401C41F1000130BD00006C
:100A10002DE9F0411F46044603260168072A01F428
:100A2000006004DB08B116A505E016A503E008B1D7
:100A300015A500E015A521F010002060A069C01EDA
:100A4000A0610FB1401EA0612046AFF300804FB1FE
:100A5000D4E9012138469047206A401C2062C01C1E
:100A6000206206E0206AFAE7D4E9012115F8010BBB
:100A70009047761EF8D22046AFF30080BDE8F081A3
:100A80004E414E006E616E00494E4600696E660032
:100A90002DE9F047814616468AB0354878440DC89E
:100AA0008DE80D0032487844801C03AC0DC884E802
:100AB0000D0041F69B300844372190FBF1F290FB8A
:100AC000F1F5A5F1800501FB12041B3C02D564423F
:100AD000012000E00020DFF898A080460027FA44BB
:100AE000AAF1BE0A0EE0E0070AD03246684607EBDC
:100AF000470101230AEB810104F0E7FD8DE80700BF
:100B000064107F1C002CEED1194F7F44AE3F19E0DA
:100B1000E80715D007EB04100DF1180A90E80E0055
:100B20008AE80E00C068F04201D198190890324658
:100B3000012306A903A804F0C8FD03AB83E807005E
:100B40006D10641C002DE3D14FF00103324669465D
:100B5000B8F1000F03A802D004F0A2FD01E004F0F8
:100B6000B4FDC9E90001C9F808200AB0BDE8F08762
:100B7000B85A000000487047180000207546FFF77B
:100B8000F9FFAE4605006946534620F0070085464A
:100B900018B020B5FFF72CFBBDE820404FF0000651
:100BA0004FF000074FF000084FF0000BAC46ACE8E8
:100BB000C009ACE8C009ACE8C009ACE8C00921F044
:100BC00007018D46704710B50446AFF300802046FC
:100BD000BDE81040FFF7F7BA4FF0013C50F8042B86
:100BE00051F8043B9A4221D1A2EB0C03934313EA40
:100BF000CC1317D150F8042B51F8043B9A4215D16D
:100C0000A2EB0C03934313EACC130BD150F8042B43
:100C100051F8043B9A4209D1A2EB0C03934313EA27
:100C2000CC13DBD04FF00000704700BFD01A01BAE0
:100C3000B1FA81F101F0180122FA01F0CB40DBB2E8
:100C4000C0B2C01AC1F120012CFA01F3D11A9143AC
:100C500011EAC311E6D1704701491820ABBEFEE787
:100C60002600020070470000FEE700007047000009
:100C7000B0B5044600F024F9054640F20C00C2F27B
:100C800000000078611C18BF044400BF00F018F990
:100C9000401BA042FAD3B0BD2DE9F04F82B00E68E0
:100CA000002E00F0FD8041F20042C4F20102042354
:100CB00040F2004E904208BF03234FF6FF7CC4F27F
:100CC000010E009300240123C1F2100C4FF0000A22
:100CD0004FF000094BE000BF41F20002C4F20102F4
:100CE000009F904208BF022704F00C030F229A4095
:100CF0002BEA020207FA03F34FEA9A051A4346F871
:100D000025204E6840F20C45F202DEF8082054BF60
:100D100022EA080242EA0802C4F20105CEF80820DD
:100D20002A68B30254BF22EA080242EA08022A6093
:100D3000B303DEF8042054BF22EA080242EA0802A4
:100D4000F303CEF80420DEF800204FF0010354BF77
:100D500022EA080242EA0802CEF800200E680AF1F0
:100D6000010A36FA0AF204F1040400F0998003FA49
:100D70000AFB16EA0B08F1D04E68664512DC122E0B
:100D800056D8DFE806F0350B4D49555555555555A4
:100D90005555555555555545510000BFD1F80C9046
:100DA00046E000BF4FF6FF72C1F2210296420FDC0F
:100DB0000022C1F2110296421AD00022C1F21202A0
:100DC000964215D00022C1F22102964210D02FE0A7
:100DD0000022C1F2220296420AD00022C1F2310260
:100DE000964205D00022C1F23202964220D100BFC5
:100DF0008A684AB1012A14BFC0F814B0C0F810B014
:100E00004FF0080914E000BF4FF0040910E000BFE4
:100E1000CA6802F104090BE04FF0000908E000BFC6
:100E2000CA6802F1080903E0CA6802F10C0900BFB0
:100E300002462646B8F5807F24BF0432203E17685C
:100E40000F25B54027EA050509FA06F63543156072
:100E5000CA79D2067FF582AF41F21803C4F20203C9
:100E60001A68AEF57E7642F001021A601A6802F046
:100E700001020192019A2AF0030256F802B040F6EC
:100E80000002C4F20102904208D040F60042C4F2CF
:100E9000010290427FF420AF012725E7002723E7D6
:100EA00002B0BDE8F08F00008068084018BF012044
:100EB00070470000002A08BF090401617047000064
:100EC00040F20020C2F200000068704740F20C00BF
:100ED00040F20021C2F20000C2F2000100780A686C
:100EE000104408607047000080B542F20000C4F270
:100EF0000200016841F010010160032000F08CF84D
:100F00000F2000F005F800F027F8002080BD000059
:100F100070B540F20C06C2F2000640F214013278BD
:100F2000C2F200014FF47A730968B3FBF2F204468F
:100F3000B1FBF2F1084600F085FB0F2C4FF00105E4
:100F400008D838B94FF0FF3021460022002500F0C4
:100F500037F87460284670BD82B041F21800C4F2C0
:100F600002000168022241F001010160016801F004
:100F7000010101910199416841F08051416040684F
:100F800000F08050009000980420C4F20100016835
:100F900062F31A61016002B070470000002848BF88
:100FA000704700F01F01012202FA01F11C2202EA3F
:100FB000D0004EF20012CEF20002815070470000C5
:100FC00010B54EF60C5CCEF2000CDCF80030C3F32A
:100FD000022E8EF00704042C28BF0424BEF1030364
:100FE0004FF0FF3E0EFA04F438BF0023A1439940AE
:100FF0000EFA03F39A43114300F00F0200F160432D
:101000000901043A03F564436244002848BF02F131
:101010000C03197010BD00004EF60C51CEF2000109
:101020000A684FF6FF031A4060F30A2242F080601C
:1010300040F0FD7008607047002804BF0120704731
:101040002DE9F04381B042F20008C4F202080446E0
:10105000D8F800000D4600F0070081420CD9D8F8FE
:10106000000020F007002843C8F80000D8F800006E
:1010700000F00700A8426CD1206841F20409810702
:10108000C4F2020917D5410705D5D9F8001041F47B
:10109000E061C9F80010010705D5D9F8001041F446
:1010A0006051C9F80010D9F80010A26821F0F001D1
:1010B0001143C9F80010C00742D1D8F8000000F071
:1010C000070085420CD2D8F8000020F00700284322
:1010D000C8F80000D8F8000000F00700A84238D196
:1010E0002068410707D5D9F80010E26821F4E061D3
:1010F0001143C9F80010000708D5D9F8000021698C
:1011000020F4605040EAC100C9F80000D9F800207E
:1011100002F00C00082841F20020C0F27A004DD104
:1011200046F28A53C2F38341C0F60003595CD203EE
:1011300038D440F60010C0F23D0048433EE000BF06
:10114000606859F8041C022808D0012826D18903B8
:1011500006D4012001B0BDE8F08300BF8901F8D5B5
:10116000D9F8001021F003010843C9F80000FFF787
:10117000A7FE064641F28837D9F80000616800F002
:101180000C00B0EB810F98D0FFF79AFE801BB8429D
:10119000F2D9032001B0BDE8F08300BF8907D8D59C
:1011A000DEE700BFD9F8002046F28853C2F3404280
:1011B000C0F600039A5C4843B0FBF2F0D9F8001087
:1011C00046F27052C1F30311C0F60002515C40F2C6
:1011D000140220FA01F140F21000C2F2000000688F
:1011E000C2F200021160FFF793FE002001B0BDE8DB
:1011F000F083000040F2140041F20401C2F200004A
:10120000C4F202010068096846F28052C1F302216B
:10121000C0F60002515CC8407047000040F2140064
:1012200041F20401C2F20000C4F202010068096840
:1012300046F28052C1F3C221C0F60002515CC840A0
:1012400070470000002804BF012070472DE9F041DD
:1012500082B00446007841F20006C007C4F20206DC
:101260000CD0706800F00C00042840F081803068D9
:10127000800303D56068002800F04681207880074D
:101280001BD5706810F00C0F09D0706800F00C00CE
:10129000082840F087807068C00300F183803068C0
:1012A000800703D52069012840F02E8130686169EC
:1012B00020F0F80040EAC10030602078000713D425
:1012C000207840072CD4E569002D00F01881706863
:1012D00000F00C00082840F0A780012D40F00481A8
:1012E000012002B0BDE8F081A069002800F08480F0
:1012F0000020C4F242200121C0F88014FFF7E0FD75
:10130000054600BF706A800700F1B280FFF7D8FD84
:10131000401B0228F6D9032002B0BDE8F08100BFCF
:10132000F0695FEAC00808D4F06940F08050F061CD
:10133000F06900F080500090009847F20007C4F276
:1013400000073868C00549D4386840F480703860B8
:10135000FFF7B6FD054600BF3868C0053ED4FFF76D
:10136000AFFD401B6428F7D9032002B0BDE8F0812F
:10137000706800F00C00082803D17068C0033FF5C6
:1013800076AF61683068002900F00C81B1F5A02FBC
:1013900000F00081B1F5803F40F01A8140F48030C8
:1013A0001CE100BF2069002840F20000C4F2422086
:1013B00000F0888001210160FFF782FD054600BF33
:1013C000306880073FF572AFFFF77AFD401B0228B7
:1013D000F6D9032002B0BDE8F08100BFE168306AB1
:1013E000002900F09D80052900F09280012940F03D
:1013F000AF8040F00100B1E00020C4F242200021A3
:10140000C0F88014FFF75CFD054600BF706A8007D6
:101410007FF556AFFFF754FD401B0228F6D9032095
:1014200002B0BDE8F08100BF0027C4F242270020CF
:101430003866FFF745FD022D05460DD13068800165
:1014400040F1DE80FFF73CFD401B02284FF0030017
:10145000F4D902B0BDE8F081306880014FD5FFF7C4
:101460002FFD401B02284FF00300F5D9F1E700BF24
:1014700040F21400C2F20000006844F6D351C1F2F9
:101480006201A0FB0101480A019000BF00BF019862
:10149000411E002801913FF413AF00BF0198411E87
:1014A000002801913FF40CAF00BF0198411E0028B5
:1014B00001913FF405AF00BF0198411E0028019142
:1014C000E4D1FDE600210160FFF7FAFC054600BF0C
:1014D000306880077FF5F1AEFFF7F2FC401B022871
:1014E0004FF00300F4D9B4E77068216A00F4803249
:1014F0008A4209D1616A00F47010884204D1002048
:1015000002B0BDE8F08100BF012002B0BDE8F0816B
:1015100040F004003062306A40F001001EE000BF7D
:1015200020F001003062306A20F004003062FFF7E2
:10153000C7FC054641F28837306A800720D5FFF79F
:10154000BFFC401BB8424FF00300F5D981E700BF54
:1015500020F001003062306A20F004003062FFF7B2
:10156000AFFC054641F28837306A800708D4FFF7A0
:10157000A7FC401BB842F7D9032002B0BDE8F081B8
:10158000B8F1000F3FF59FAEF06920F08050F06198
:1015900099E600BF40F480203060306840F480302D
:1015A0001CE000BF20F480303060306820F48020E0
:1015B0003060FFF785FC0546306880037FF55EAE3E
:1015C000FFF77EFC401B64284FF00300F4D940E78E
:1015D00020F480303060306820F480203060FFF7E5
:1015E0006FFC0546306880033FF548AEFFF768FCA6
:1015F000401B6428F6D9032002B0BDE8F08100BF8B
:10160000206AB0F5803F05D17168A26821F40031ED
:10161000114371607168626A21F4741111430843C7
:10162000706001203866FFF74BFC0446306880018B
:101630003FF565AFFFF744FC001B02284FF00300A5
:10164000F4D906E7411E0020B0EB116F1CBF01204A
:1016500070474EF21002CEF2000251604EF6235156
:10166000CEF20001F0230B700721906011607047EB
:10167000704700007047000090F83C20012A04BF2A
:1016800002207047B0B501F108053CCDD1E900CE8C
:1016900023F47C5322F470521A432EF4F0431A437D
:1016A0002CF4E0431A4324F4C0431A432A43C96983
:1016B00022F48042036811435964002180F83C10F1
:1016C0000020B0BD90F83C20012A4FF0020236D035
:1016D00010B580F83D200268D2F804E0D2F808C0C6
:1016E0000C682EF07003234340F2FF74C4F2000430
:1016F000A24253600ADCB2F1804F13D040F20043A3
:10170000C4F200039A420DD011E000BF42F600433C
:10171000C4F201039A4205D040F60003C4F200036C
:101720009A4204D149682CF0800319439160012149
:10173000002280F83D1080F83C20BDE810401046A3
:10174000704700002DE9F0410168B1F1804F01D0F0
:10175000BDE8F081017F02293CD00129F8D10021A8
:1017600000F09CFC40F27805C2F2000500282861D8
:1017700008BFBDE8F08104F077FC044642F2004067
:10178000C4F67410214604F045FB40F20008C4F290
:101790007A48E8612046414604F03CFB0646686909
:1017A0002E6204F061FC4146074604F033FB01461B
:1017B0006862304604F0AAFD0021A862C4F2C82184
:1017C000384604F0CDFC214604F024FBA861BDE8B6
:1017D000F08100BF042100F061FC40F27801C2F208
:1017E00000014861BDE8F08190F83C30012B04BF56
:1017F000022070474FEAB202032A00F28580F0B55A
:10180000DFE802F0025C203E0368D1E900C5D1F8B0
:101810000CE01C6A1A6A40F2FF7722F001021A6299
:101820001A4652F8186FC4F20007BB4272DCB3F1DB
:10183000804F7BD040F20047C4F20007BB4275D016
:1018400090E000BF0768D1E900C5D1E902313C6AE8
:101850003A6A61F3071522F480723A623A4652F806
:101860001C6F26F0F30645EA06014FEA5C0666F3B4
:10187000492411603C62116821F00C01116066E09E
:101880000368D1E900E6D1E902C11C6A1A6A36028E
:1018900022F480521A621A4652F81C5F4FF2FF0778
:1018A000BE4325F4734561F30F364FEA5E0746EAFF
:1018B000050167F34D3411601C621EE00368D1E935
:1018C00000E6D1E902C11C6A1A6A360222F010024F
:1018D0001A621A4652F8185F4FF2FF07BE4325F40A
:1018E000734561F30F3624F0A0040EF00A0746EAB0
:1018F000050144EA071711601F6211684FEA0C23C3
:1019000021F44061116022E00121002280F83C2096
:101910000846704742F60047C4F20107BB4205D0B3
:1019200040F60007C4F20007BB421BD126F00306B5
:10193000354324F00A070CF00A066EF30715374406
:101940009D611F629F6927F00C079F618B6811687A
:10195000194311600021BDE8F040002280F83C20CE
:101960000846704746F00105E3E70000002804BF81
:101970000120704710B590F83D1031B9002180F872
:101980003C10044600F070F82046022180F83D101B
:10199000016840F2FF740B68C4F2000442F6004C88
:1019A000A142C4F2010C15DCB1F1804F1AD040F213
:1019B0000042C4F20002914214D0A14218DCB1F1FD
:1019C000804F1DD040F20042C4F20002914217D075
:1019D0001AE000BF614505D040F60002C4F20002E3
:1019E0009142EAD1826823F070031343A142E6DDFD
:1019F000614505D040F60002C4F20002914203D1D5
:101A0000026923F440731343846923F08002D0F801
:101A100004E0C368224361450A60CB62C1F828E054
:101A200002D14269CCF8302001224A610B69DB0700
:101A300003D00B6923F001030B6180F8462080F886
:101A40003E2080F83F2080F8402080F8412080F838
:101A5000422080F8432080F8442080F8452080F818
:101A60003D20002010BD000080B586B00068002138
:101A7000B0F1804FCDE904110391029102D006B07C
:101A800080BD00BF41F21800C4F20200426842F07B
:101A900001024260426802F001020192019A02686A
:101AA00042F004020260006800F004000190019816
:101AB0000120CDE9020140F600000491C4F20100CA
:101AC00002A9FFF7E9F81C2000210022FFF778FAAD
:101AD0001C20FFF763FA06B080BD000070B5044615
:101AE0000068C5680669B10716D515F0020113D064
:101AF0006FF002010161012121778069800703D025
:101B00002046FFF71FFE05E0204600F0BBF8204608
:101B100000F052FA00202077700719D515F0040064
:101B200016D020686FF004010161022121778069DD
:101B300010F4407F04D02046FFF704FE06E000BF0B
:101B4000204600F09FF8204600F036FA002020776B
:101B5000300717D515F0080014D020686FF0080181
:101B6000016104212177C069800703D02046FFF777
:101B7000E9FD05E0204600F085F8204600F01CFA5B
:101B800000202077F00619D515F0100016D0206837
:101B90006FF01001016108212177C06910F4407FC6
:101BA00004D02046FFF7CEFD06E000BF204600F03F
:101BB00069F8204600F000FA00202077F00718BFEF
:101BC00015F0010002D1300609D412E020686FF050
:101BD00001010161204600F05FFA300609D515F0D9
:101BE000800006D020686FF0800101612046FFF779
:101BF0003FFD700609D515F0400006D020686FF053
:101C000040010161204600F081FAB00658BF70BD66
:101C100015F0200008D021686FF0200220460A61EC
:101C2000BDE87040FFF726BD70BD000080B586B0EE
:101C3000014640F60000C4F20100096800F51052A8
:101C400091424FF00001CDE90411CDE9021101D01C
:101C500006B080BD41F21801C4F202010A6842F0E8
:101C600004020A60096801F00401019101994FF42E
:101C70001061029102210391059102A9FFF70CF86E
:101C800006B080BD7047000090F83C30012B04BFC7
:101C9000022070474FEAB202032A00F2F1802DE9D8
:101CA000F043DFE802F003A53B7500BF036842F68E
:101CB00000461D6A1A6AC4F2010622F001021A6285
:101CC0001A465C6852F818CFB3428E68D1F800E02B
:101CD00025F0020545EA06050CD1CE68D1E9057864
:101CE00024F4407425F00C0526F004063C433543EB
:101CF00044EA08042CF0730747EA0E075C609F6112
:101D00004F6809695F631D629F6947F008079F611B
:101D10009F6927F004079F61A6E000BF036842F6B1
:101D200000461D6A1A6AC4F2010622F480721A6221
:101D30001A46D3F804C052F81CEFB3428E680C6800
:101D400025F4007545EA06250FD1CE68D1E905983E
:101D5000360240F2FF4725F44065BE4335432CF47C
:101D6000405748EA090647EA061C2EF07307274346
:101D7000C3F804C0DF614F680969DF631D62DF6972
:101D800047F00807DF61DF6927F00407DF616BE0D8
:101D9000036842F60047D3F820C01A6AC4F201076C
:101DA00022F480521A621A465C6852F81C5FD1F81D
:101DB00000E08E68BB4204D14F6924F4804444EAB9
:101DC00087142CF4005747EA063725F4E64646EA1E
:101DD0000E265C60DE614E6809691E641F62DF6961
:101DE00047F40067DF61DF6927F48067DF613AE06D
:101DF000036842F600461D6A1A6AC4F2010622F020
:101E000010021A621A46D3F804C052F8184FB342AF
:101E10008E68D1F800E025F0200545EA06150FD1BF
:101E2000CE68D1E905986FF0400725F0C00507EAB4
:101E3000061635432CF4406748EA090647EA860C43
:101E400024F4E64444EA0E27C3F804C09F614F68B7
:101E500009699F631D629F6947F400679F619F69DD
:101E600027F480679F6109021368194311600021FC
:101E7000BDE8F043002280F83C200846704700BFD0
:101E80000121002280F83C2008467047002804BF4A
:101E90000120704710B590F83D1031B9002180F84D
:101EA0003C10044600F070F82046022180F83D10F6
:101EB000016840F2FF740B68C4F2000442F6004C63
:101EC000A142C4F2010C15DCB1F1804F1AD040F2EE
:101ED0000042C4F20002914214D0A14218DCB1F1D8
:101EE000804F1DD040F20042C4F20002914217D050
:101EF0001AE000BF614505D040F60002C4F20002BE
:101F00009142EAD1826823F070031343A142E6DDD7
:101F1000614505D040F60002C4F20002914203D1AF
:101F2000026923F440731343846923F08002D0F8DC
:101F300004E0C368224361450A60CB62C1F828E02F
:101F400002D14269CCF8302001224A610B69DB07DB
:101F500003D00B6923F001030B6180F8462080F861
:101F60003E2080F83F2080F8402080F8412080F813
:101F7000422080F8432080F8442080F8452080F8F3
:101F80003D20002010BD0000006842F60041C4F270
:101F90000101884218BF704781B041F21800C4F2B5
:101FA0000200016841F400610160006800F4006013
:101FB0000090009801B0704770470000C1B104293B
:101FC00008D0082914BF41224022825C012A05D092
:101FD00016E000BF3F22825C012A11D102220829AB
:101FE00010D0042914BF80F8412080F83F200BE076
:101FF00090F83E20012A03D1022280F83E2003E01F
:102000000120704780F84020006801F01F01012284
:10201000036A8A4023EA02010162036A42F64441EC
:10202000C4F201011A43A1F14403984202620FD0A5
:1020300040F2FF71C4F20001884213DCB0F1804F1E
:102040001CD040F20041C4F20001884216D01CE0CE
:102050000A6842F400420A6040F2FF71C4F20001D3
:102060008842EBDD42F60041C4F20101884205D00E
:1020700040F60001C4F20001884206D1816801F0F7
:102080000701062904BF00207047016841F00101E3
:102090000160002070470000704700004FEAB10166
:1020A000032984BF00207047006800EB8100406B6B
:1020B00070470000B0B5044690F83C0001284FF08E
:1020C000020008BFB0BD012584F83C5084F83D00F3
:1020D000204602F09FFD00284FF0010006D00021AD
:1020E00084F83D5084F83C10B0BD00BF2068C16842
:1020F00021F04001C160C16821F48041C16000202D
:10210000002184F83D5084F83C10B0BD70470000B9
:10211000002804BF0120704710B5044690F8410024
:1021200028B9002084F84000204600F063F82420FD
:1021300084F841002068D4E90212C36823F40053F4
:10214000C360036923F440531A430261D4E90423B2
:102150001143C268194341F20C639A431143C160B1
:102160004169A26921F44071114343F60002C4F2AF
:1021700001029042416103D0FFF73CF802E000BF4A
:10218000FFF74CF8D4E90023192148439900B0FB2C
:10219000F1F048F21F5CC5F2EB1CA0FB0C314FF6CE
:1021A0009C734909C0F6FF7301FB0300322303EB64
:1021B0000010A0FB0C03F02000EA531000EB01100C
:1021C000C3F34311084490601069202120F490402B
:1021D0001061506920F02A005061D06840F400502E
:1021E000D0600020606484F8411084F8421060637D
:1021F00010BD000070B586B040F60004C4F20104C2
:10220000006804F54051002688420596CDE9036632
:10221000029601D006B070BD41F21800C4F202006F
:10222000016802AD41F480410160016801F4804120
:1022300001910199016841F004010160006829469B
:1022400000F00400019001984FF400700290022009
:102250000390032005902046FEF71EFD4FF480609A
:10226000CDE90206204629460496FEF715FD06B084
:1022700070BD00002DE9F04381B0044690F84100A4
:10228000202809D100294FF0010018BF002A07D1EA
:1022900001B0BDE8F08300BF022001B0BDE8F083CB
:1022A0000020606421201D460E4684F84100174638
:1022B000FEF706FEA784E784A1688146B1F5805F3A
:1022C00002D1206900285DD037460020E28C2168C9
:1022D000002A5DD06A1C24D0002D4AD0804600BF61
:1022E0000868000608D4FEF7EBFDA0EB0900A84241
:1022F0007AD82168C868F3E717B117F8010B04E032
:1023000038F8020B00276FF35F204860E08C01383B
:10231000E084E08C0028E3D13AE000BF0A681206AE
:1023200009D40A68120606D40A6812065CBF0A6855
:102330005FEA0262F2D51FB117F8012B05E000BF7A
:1023400030F8022B00276FF35F224A60E28C013ADB
:10235000E284E28C002AE4D11AE000BF30F8022BBC
:1023600000276FF35F224A60E28C013AE284E28C3C
:1023700072B10A68120635D5002FEFD017F8012B7D
:10238000F1E700BF00273046E28C2168002AA1D186
:10239000086840061ED42DB3681C14D10868400696
:1023A0002AD40868400627D40868400624D4086860
:1023B00040064FF00000F1D50DE000BF2068C16875
:1023C0000068400618D4FEF77BFDA0EB0900A84288
:1023D000F4D909E00020202184F8411001B0BDE8C3
:1023E000F08300BFFEF76CFD0320202184F841102C
:1023F00001B0BDE8F08300BF0020202184F8411027
:1024000001B0BDE8F0830000FEE700002DE9F04FC9
:1024100083B040F60044C4F2010420464FF400713A
:102420000122FEF747FD20464FF480710122FEF79E
:1024300041FD0F20019000BF0198411E019160B144
:102440000198411E019140B10198411E019120B1B6
:102450000198411E00280191EED120464FF40071F1
:10246000FEF722FD009020464FF480710022FEF717
:1024700021FD0F20029000BF0298411E029160B121
:102480000298411E029140B10298411E029120B172
:102490000298411E00280291EED120464FF480712F
:1024A0000122FEF707FD0F20019000BF0198411E99
:1024B000019160B10198411E019140B10198411E06
:1024C000019120B10198411E00280191EED12046D2
:1024D0004FF40071FEF7E8FC814620464FF480710E
:1024E0000022FEF7E7FC0F20029000BF0298411E79
:1024F000029160B10298411E029140B10298411EC2
:10250000029120B10298411E00280291EED120468E
:102510004FF480710122FEF7CDFC0F20019000BF27
:102520000198411E019160B10198411E019140B195
:102530000198411E019120B10198411E002801918E
:10254000EED120464FF40071FEF7AEFC82462046E5
:102550004FF480710022FEF7ADFC0F20029000BF07
:102560000298411E029160B10298411E029140B151
:102570000298411E029120B10298411E002802914A
:10258000EED120464FF480710122FEF793FC0F201C
:10259000019000BF0198411E019160B10198411E58
:1025A000019140B10198411E019120B10198411E55
:1025B00000280191EED120464FF40071FEF774FC23
:1025C000834620464FF480710022FEF773FC0F20F3
:1025D000029000BF0298411E029160B10298411E14
:1025E000029140B10298411E029120B10298411E11
:1025F00000280291EED120464FF480710122FEF7AF
:1026000059FC0F20019000BF0198411E019160B15B
:102610000198411E019140B10198411E019120B1E4
:102620000198411E00280191EED120464FF400711F
:10263000FEF73AFC064620464FF480710022FEF772
:1026400039FC0F20029000BF0298411E029160B138
:102650000298411E029140B10298411E029120B1A0
:102660000298411E00280291EED120464FF480715D
:102670000122FEF71FFC0F20019000BF0198411EB0
:10268000019160B10198411E019140B10198411E34
:10269000019120B10198411E00280191EED1204600
:1026A0004FF40071FEF700FC074620464FF480719E
:1026B0000022FEF7FFFB0F20029000BF0298411E90
:1026C000029160B10298411E029140B10298411EF0
:1026D000029120B10298411E00280291EED12046BD
:1026E0004FF480710122FEF7E5FB0F20019000BF3F
:1026F0000198411E019160B10198411E019140B1C4
:102700000198411E019120B10198411E00280191BC
:10271000EED120464FF40071FEF7C6FB0546204679
:102720004FF480710022FEF7C5FB0F20029000BF1E
:102730000298411E029160B10298411E029140B17F
:102740000298411E029120B10298411E0028029178
:10275000EED120464FF480710122FEF7ABFB0F2033
:10276000019000BF0198411E019160B10198411E86
:10277000019140B10198411E019120B10198411E83
:1027800000280191EED120464FF40071FEF78CFB3A
:10279000804620464FF480710022FEF78BFB0F200D
:1027A000029000BF0298411E029160B10298411E42
:1027B000029140B10298411E029120B10298411E3F
:1027C00000280291EED1B8F1000F18BF4FF00108B8
:1027D0000098002818BF0120B9F1000F18BF4FF072
:1027E000010949EA40008000BAF1000F18BF4FF01C
:1027F000010A40EA4A00BBF1000F18BF4FF0010B7D
:1028000058448000002E18BF012640EA4600002FE1
:1028100018BF012738448000002D18BF012540EA69
:1028200045004044C0B203B0BDE8F08F10B584B09D
:1028300040F60044C4F2010420464FF40071012226
:10284000FEF738FB20464FF480710122FEF732FB81
:102850000F2001900198411E019160B10198411E25
:10286000019140B10198411E019120B10198411E92
:1028700000280191EED120464FF400710022FEF7AE
:1028800019FB0F20029000BF0298411E029160B117
:102890000298411E029140B10298411E029120B15E
:1028A0000298411E00280291EED120464FF480711B
:1028B0000022FEF7FFFA0F20039000BF0398411E8D
:1028C000039160B10398411E039140B10398411EEA
:1028D000039120B10398411E00280391EED104B06A
:1028E00010BD0000B0B582B040F60044C4F201044F
:1028F00020464FF400710122FEF7DCFA0F20019010
:102900000198411E019160B10198411E019140B1B1
:102910000198411E019120B10198411E00280191AA
:10292000EED120464FF480710122FEF7C3FA0F204A
:10293000019000BF0198411E019160B10198411EB4
:10294000019140B10198411E019120B10198411EB1
:1029500000280191EED1002520464FF40071FEF7CA
:10296000A3FA002840D0FA2D05F10105F4D3204642
:102970004FF400710022FEF79DFA20464FF480715B
:102980000122FEF797FA0F20019000BF0198411E27
:10299000019160B10198411E019140B10198411E21
:1029A000019120B10198411E00280191EED12046ED
:1029B0004FF400710122FEF77DFA0F20019000BF55
:1029C0000198411E019160B10198411E019140B1F1
:1029D0000198411E019120B10198411E00280191EA
:1029E000EED1012002B0B0BD20464FF4807100222C
:1029F000FEF760FA0F2001900198411E019160B12D
:102A00000198411E019140B10198411E019120B1F0
:102A10000198411E00280191EED1002002B0B0BD06
:102A20002DE9F04F85B0019181460DF10E0002A90C
:102A3000924600F0CBF8BDF90E00BDF912404042BD
:102A400003F0FAFA0646204603F0F6FA0546304649
:102A5000294602F0A7FF0026C4F23436314603F0BF
:102A60007FFB40F6DA77C4F24907394603F0D2F922
:102A7000BDF910100446084603F0DEFA294602F0BC
:102A800091FF314603F06CFB394603F0C3F9009027
:102A9000BDF90800BDF90A6003F0CEFA43F23337FE
:102AA000C4F28317394603F0B5F90546304603F002
:102AB000C3FA394603F0AEF9D9F80060514603F085
:102AC0004FFB314603F008F94DF20A76C3F6A346F0
:102AD00007462046314603F043FB4EF2481BC3F63F
:102AE0007A7B80463846594603F03AFB414603F06C
:102AF000F3F8019CC9F8000027682846514603F006
:102B00002FFB394603F0E8F805460098314603F0FC
:102B100027FB06462846594603F022FB314603F0C0
:102B2000DBF8206005B0BDE8F08F0000B0B586B0DE
:102B30000020CDE90400CDE9020041F21800C4F202
:102B40000200016840F6004541F00801016000689C
:102B5000C4F2010500F00800019001984FF44070A4
:102B600002901120039003200124059002A9284619
:102B70000494FEF791F828464FF480710122FEF785
:102B800099F928464FF400710122FEF793F9642069
:102B9000FEF76EF86B20002101F086F810B1204698
:102BA00006B0B0BD1920072101F07EF81A200321DC
:102BB00001F07AF81B20182101F076F81C20002182
:102BC000002401F071F8204606B0B0BD2DE9F043B5
:102BD00085B040F6004688468146C4F20106FFF7FC
:102BE00025FE30464FF400710122FEF763F90F20F5
:102BF000009000BF0098411E009160B10098411EF6
:102C0000009140B10098411E009120B10098411EF2
:102C100000280091EED130464FF480710122FEF77A
:102C200049F90F20009000BF0098411E009160B14B
:102C30000098411E009140B10098411E009120B1C2
:102C40000098411E00280091EED130464FF480716B
:102C50000022FEF72FF90F20009000BF0098411EC0
:102C6000009160B10098411E009140B10098411E52
:102C7000009120B10098411E00280091EED130460D
:102C80004FF400710122FEF715F90F20009000BFEC
:102C90000098411E009160B10098411E009140B122
:102CA0000098411E009120B10098411E002800911B
:102CB000EED130464FF480710122FEF7FBF80F2071
:102CC000009000BF0098411E009160B10098411E25
:102CD000009140B10098411E009120B10098411E22
:102CE00000280091EED130464FF480710022FEF7AB
:102CF000E1F80F20009000BF0098411E009160B1E4
:102D00000098411E009140B10098411E009120B1F1
:102D10000098411E00280091EED130464FF400711A
:102D20000022FEF7C7F80F20009000BF0098411E58
:102D3000009160B10098411E009140B10098411E81
:102D4000009120B10098411E00280091EED130463C
:102D50004FF480710122FEF7ADF80F20009000BF04
:102D60000098411E009160B10098411E009140B151
:102D70000098411E009120B10098411E002800914A
:102D8000EED130464FF480710022FEF793F80F2009
:102D9000009000BF0098411E009160B10098411E54
:102DA000009140B10098411E009120B10098411E51
:102DB00000280091EED130464FF400710122FEF759
:102DC00079F80F20009000BF0098411E009160B17B
:102DD0000098411E009140B10098411E009120B121
:102DE0000098411E00280091EED130464FF48071CA
:102DF0000122FEF75FF80F20009000BF0098411EEF
:102E0000009160B10098411E009140B10098411EB0
:102E1000009120B10098411E00280091EED130466B
:102E20004FF480710022FEF745F80F20009000BF9C
:102E30000098411E009160B10098411E009140B180
:102E40000098411E009120B10098411E0028009179
:102E5000EED130464FF400710022FEF72BF80F2020
:102E6000009000BF0098411E009160B10098411E83
:102E7000009140B10098411E009120B10098411E80
:102E800000280091EED130464FF480710122FEF708
:102E900011F80F20009000BF0098411E009160B112
:102EA0000098411E009140B10098411E009120B150
:102EB0000098411E00280091EED130464FF48071F9
:102EC0000022FDF7F7FF0F20009000BF0098411E81
:102ED000009160B10098411E009140B10098411EE0
:102EE000009120B10098411E00280091EED130469B
:102EF0004FF400710022FDF7DDFF0F20009000BFAE
:102F00000098411E009160B10098411E009140B1AF
:102F10000098411E009120B10098411E00280091A8
:102F2000EED130464FF480710122FDF7C3FF0F2030
:102F3000009000BF0098411E009160B10098411EB2
:102F4000009140B10098411E009120B10098411EAF
:102F500000280091EED130464FF480710022FDF739
:102F6000A9FF0F20009000BF0098411E009160B1A2
:102F70000098411E009140B10098411E009120B17F
:102F80000098411E00280091EED130464FF40071A8
:102F90000022FDF78FFF0F20009000BF0098411E18
:102FA000009160B10098411E009140B10098411E0F
:102FB000009120B10098411E00280091EED13046CA
:102FC0004FF480710122FDF775FF0F20009000BFC4
:102FD0000098411E009160B10098411E009140B1DF
:102FE0000098411E009120B10098411E00280091D8
:102FF000EED130464FF480710022FDF75BFF0F20C9
:10300000009000BF0098411E009160B10098411EE1
:10301000009140B10098411E009120B10098411EDE
:1030200000280091EED130464FF400710022FDF7E8
:1030300041FF0F20009000BF0098411E009160B139
:103040000098411E009140B10098411E009120B1AE
:103050000098411E00280091EED130464FF4807157
:103060000122FDF727FF0F20009000BF0098411EAE
:10307000009160B10098411E009140B10098411E3E
:10308000009120B10098411E00280091EED13046F9
:103090004FF480710022FDF70DFF0F20009000BF5C
:1030A0000098411E009160B10098411E009140B10E
:1030B0000098411E009120B10098411E0028009107
:1030C000EED1FFF70FFC30464FF400710022FDF700
:1030D000F1FE0F20009000BF0098411E009160B1EA
:1030E0000098411E009140B10098411E009120B10E
:1030F0000098411E00280091EED130464FF48071B7
:103100000122FDF7D7FE0F20009000BF0098411E5E
:10311000009160B10098411E009140B10098411E9D
:10312000009120B10098411E00280091EED1304658
:103130004FF480710022FDF7BDFE0F20009000BF0C
:103140000098411E009160B10098411E009140B16D
:103150000098411E009120B10098411E0028009166
:10316000EED130464FF400710022FDF7A3FE0F2090
:10317000009000BF0098411E009160B10098411E70
:10318000009140B10098411E009120B10098411E6D
:1031900000280091EED130464FF480710122FDF7F6
:1031A00089FE0F20009000BF0098411E009160B181
:1031B0000098411E009140B10098411E009120B13D
:1031C0000098411E00280091EED130464FF48071E6
:1031D0000022FDF76FFE0F20009000BF0098411EF7
:1031E000009160B10098411E009140B10098411ECD
:1031F000009120B10098411E00280091EED1304688
:103200004FF400710122FDF755FE0F20009000BF22
:103210000098411E009160B10098411E009140B19C
:103220000098411E009120B10098411E0028009195
:10323000EED130464FF480710122FDF73BFE0F20A6
:10324000009000BF0098411E009160B10098411E9F
:10325000009140B10098411E009120B10098411E9C
:1032600000280091EED130464FF480710022FDF726
:1032700021FE0F20009000BF0098411E009160B118
:103280000098411E009140B10098411E009120B16C
:103290000098411E00280091EED130464FF4007195
:1032A0000122FDF707FE0F20009000BF0098411E8D
:1032B000009160B10098411E009140B10098411EFC
:1032C000009120B10098411E00280091EED13046B7
:1032D0004FF480710122FDF7EDFD0F20009000BF3B
:1032E0000098411E009160B10098411E009140B1CC
:1032F0000098411E009120B10098411E00280091C5
:10330000EED130464FF480710022FDF7D3FD0F203F
:10331000009000BF0098411E009160B10098411ECE
:10332000009140B10098411E009120B10098411ECB
:1033300000280091EED130464FF400710122FDF7D4
:10334000B9FD0F20009000BF0098411E009160B1B0
:103350000098411E009140B10098411E009120B19B
:103360000098411E00280091EED130464FF4807144
:103370000122FDF79FFD0F20009000BF0098411E25
:10338000009160B10098411E009140B10098411E2B
:10339000009120B10098411E00280091EED13046E6
:1033A0004FF480710022FDF785FD0F20009000BFD3
:1033B0000098411E009160B10098411E009140B1FB
:1033C0000098411E009120B10098411E00280091F4
:1033D000EED130464FF400710022FDF76BFD0F2057
:1033E000009000BF0098411E009160B10098411EFE
:1033F000009140B10098411E009120B10098411EFB
:1034000000280091EED130464FF480710122FDF783
:1034100051FD0F20009000BF0098411E009160B147
:103420000098411E009140B10098411E009120B1CA
:103430000098411E00280091EED130464FF4807173
:103440000022FDF737FD0F20009000BF0098411EBD
:10345000009160B10098411E009140B10098411E5A
:10346000009120B10098411E00280091EED1304615
:103470004FF400710122FDF71DFD0F20009000BFE9
:103480000098411E009160B10098411E009140B12A
:103490000098411E009120B10098411E0028009123
:1034A000EED130464FF480710122FDF703FD0F206D
:1034B000009000BF0098411E009160B10098411E2D
:1034C000009140B10098411E009120B10098411E2A
:1034D00000280091EED130464FF480710022FDF7B4
:1034E000E9FC0F20009000BF0098411E009160B1E0
:1034F0000098411E009140B10098411E009120B1FA
:103500000098411E00280091EED130464FF4007122
:103510000122FDF7CFFC0F20009000BF0098411E54
:10352000009160B10098411E009140B10098411E89
:10353000009120B10098411E00280091EED1304644
:103540004FF480710122FDF7B5FC0F20009000BF01
:103550000098411E009160B10098411E009140B159
:103560000098411E009120B10098411E0028009152
:10357000EED130464FF480710022FDF79BFC0F2006
:10358000009000BF0098411E009160B10098411E5C
:10359000009140B10098411E009120B10098411E59
:1035A00000280091EED1FFF79DF9FFF73FF9304673
:1035B0004FF400710122FDF77DFC0F20009000BF49
:1035C0000098411E009160B10098411E009140B1E9
:1035D0000098411E009120B10098411E00280091E2
:1035E000EED130464FF480710122FDF763FC0F20CD
:1035F000009000BF0098411E009160B10098411EEC
:10360000009140B10098411E009120B10098411EE8
:1036100000280091EED130464FF480710022FDF772
:1036200049FC0F20009000BF0098411E009160B13E
:103630000098411E009140B10098411E009120B1B8
:103640000098411E00280091EED130464FF40071E1
:103650000122FDF72FFC0F20009000BF0098411EB3
:10366000009160B10098411E009140B10098411E48
:10367000009120B10098411E00280091EED1304603
:103680004FF480710122FDF715FC0F20009000BF60
:103690000098411E009160B10098411E009140B118
:1036A0000098411E009120B10098411E0028009111
:1036B000EED130464FF480710022FDF7FBFB0F2066
:1036C000009000BF0098411E009160B10098411E1B
:1036D000009140B10098411E009120B10098411E18
:1036E00000280091EED130464FF400710022FDF722
:1036F000E1FB0F20009000BF0098411E009160B1D7
:103700000098411E009140B10098411E009120B1E7
:103710000098411E00280091EED130464FF4807190
:103720000122FDF7C7FB0F20009000BF0098411E4B
:10373000009160B10098411E009140B10098411E77
:10374000009120B10098411E00280091EED1304632
:103750004FF480710022FDF7ADFB0F20009000BFF9
:103760000098411E009160B10098411E009140B147
:103770000098411E009120B10098411E0028009140
:10378000EED130464FF400710122FDF793FB0F207C
:10379000009000BF0098411E009160B10098411E4A
:1037A000009140B10098411E009120B10098411E47
:1037B00000280091EED130464FF480710122FDF7D0
:1037C00079FB0F20009000BF0098411E009160B16E
:1037D0000098411E009140B10098411E009120B117
:1037E0000098411E00280091EED130464FF48071C0
:1037F0000022FDF75FFB0F20009000BF0098411EE4
:10380000009160B10098411E009140B10098411EA6
:10381000009120B10098411E00280091EED1304661
:103820004FF400710022FDF745FB0F20009000BF10
:103830000098411E009160B10098411E009140B176
:103840000098411E009120B10098411E002800916F
:10385000EED130464FF480710122FDF72BFB0F2093
:10386000009000BF0098411E009160B10098411E79
:10387000009140B10098411E009120B10098411E76
:1038800000280091EED130464FF480710022FDF700
:1038900011FB0F20009000BF0098411E009160B105
:1038A0000098411E009140B10098411E009120B146
:1038B0000098411E00280091EED130464FF400716F
:1038C0000022FDF7F7FA0F20009000BF0098411E7C
:1038D000009160B10098411E009140B10098411ED6
:1038E000009120B10098411E00280091EED1304691
:1038F0004FF480710122FDF7DDFA0F20009000BF28
:103900000098411E009160B10098411E009140B1A5
:103910000098411E009120B10098411E002800919E
:10392000EED130464FF480710022FDF7C3FA0F202C
:10393000009000BF0098411E009160B10098411EA8
:10394000009140B10098411E009120B10098411EA5
:1039500000280091EED130464FF400710022FDF7AF
:10396000A9FA0F20009000BF0098411E009160B19D
:103970000098411E009140B10098411E009120B175
:103980000098411E00280091EED130464FF480711E
:103990000122FDF78FFA0F20009000BF0098411E12
:1039A000009160B10098411E009140B10098411E05
:1039B000009120B10098411E00280091EED13046C0
:1039C0004FF480710022FDF775FA0F20009000BFC0
:1039D0000098411E009160B10098411E009140B1D5
:1039E0000098411E009120B10098411E00280091CE
:1039F000EED130464FF400710122FDF75BFA0F2043
:103A0000009000BF0098411E009160B10098411ED7
:103A1000009140B10098411E009120B10098411ED4
:103A200000280091EED130464FF480710122FDF75D
:103A300041FA0F20009000BF0098411E009160B134
:103A40000098411E009140B10098411E009120B1A4
:103A50000098411E00280091EED130464FF480714D
:103A60000022FDF727FA0F20009000BF0098411EAA
:103A7000009160B10098411E009140B10098411E34
:103A8000009120B10098411E00280091EED1FEF770
:103A900029FF00276C460F2503E000BF01370D2FDB
:103AA00050D0FEF7B3FCE05530464FF400710022D1
:103AB000FDF700FA049500BF0498411E049160B11F
:103AC0000498411E049140B10498411E049120B114
:103AD0000498411E00280491EED130464FF48071C5
:103AE0000122FDF7E7F904950498411E049160B1A5
:103AF0000498411E049140B10498411E049120B1E4
:103B00000498411E00280491EED130464FF4807194
:103B10000022FDF7CFF904950498411E0028049176
:103B2000BCD00498411E00280491B7D00498411ECF
:103B300000280491B2D00498411E00280491EBD1D2
:103B4000ACE700BFFEF762FC074630464FF4007159
:103B50000122FDF7AFF90F20049000BF0498411E29
:103B6000049160B10498411E049140B10498411E33
:103B7000049120B10498411E00280491EED13046F2
:103B80004FF480710122FDF795F90F20049000BFDA
:103B90000498411E049160B10498411E049140B103
:103BA0000498411E049120B10498411E00280491FC
:103BB000EED130464FF480710022FDF77BF90F20E3
:103BC000049000BF0498411E049160B10498411E06
:103BD000049140B10498411E049120B10498411E03
:103BE00000280491EED130464FF400710022FDF719
:103BF00061F930464FF480710122FDF75BF90F2027
:103C0000049000BF0498411E049160B10498411EC5
:103C1000049140B10498411E049120B10498411EC2
:103C200000280491EED130464FF400710122FDF7D7
:103C300041F90F20049000BF0498411E049160B127
:103C40000498411E049140B10498411E049120B192
:103C50000498411E00280491EED1BDF80000BDF883
:103C6000021000BA000CA9F8000008BABDF8041050
:103C7000000CA9F8020008BABDF80810000CA9F859
:103C8000040008BABDF80A10000CA8F8000008BA31
:103C90009DF80C10000CA8F8020047EA0120A8F8D3
:103CA000040005B0BDE8F08370B582B040F6004472
:103CB0000D460646C4F20104FEF7B8FD20464FF457
:103CC00000710122FDF7F6F80F2001900198411EC6
:103CD000019160B10198411E019140B10198411ECE
:103CE000019120B10198411E00280191EED120469A
:103CF0004FF480710122FDF7DDF80F20019000BF25
:103D00000198411E019160B10198411E019140B19D
:103D10000198411E019120B10198411E0028019196
:103D2000EED120464FF480710022FDF7C3F80F203A
:103D3000019000BF0198411E019160B10198411EA0
:103D4000019140B10198411E019120B10198411E9D
:103D500000280191EED120464FF400710122FDF7B9
:103D6000A9F80F20019000BF0198411E019160B198
:103D70000198411E019140B10198411E019120B16D
:103D80000198411E00280191EED120464FF4807128
:103D90000122FDF78FF80F20019000BF0198411E0E
:103DA000019160B10198411E019140B10198411EFD
:103DB000019120B10198411E00280191EED12046C9
:103DC0004FF480710022FDF775F80F20019000BFBD
:103DD0000198411E019160B10198411E019140B1CD
:103DE0000198411E019120B10198411E00280191C6
:103DF000EED120464FF400710022FDF75BF80F2052
:103E0000019000BF0198411E019160B10198411ECF
:103E1000019140B10198411E019120B10198411ECC
:103E200000280191EED120464FF480710122FDF768
:103E300041F80F20019000BF0198411E019160B12F
:103E40000198411E019140B10198411E019120B19C
:103E50000198411E00280191EED120464FF4807157
:103E60000022FDF727F80F20019000BF0198411EA6
:103E7000019160B10198411E019140B10198411E2C
:103E8000019120B10198411E00280191EED12046F8
:103E90004FF400710122FDF70DF80F20019000BFD3
:103EA0000198411E019160B10198411E019140B1FC
:103EB0000198411E019120B10198411E00280191F5
:103EC000EED120464FF480710122FCF7F3FF0F2062
:103ED000019000BF0198411E019160B10198411EFF
:103EE000019140B10198411E019120B10198411EFC
:103EF00000280191EED120464FF480710022FCF79A
:103F0000D9FF0F20019000BF0198411E019160B1BF
:103F10000198411E019140B10198411E019120B1CB
:103F20000198411E00280191EED120464FF4007106
:103F30000022FCF7BFFF0F20019000BF0198411E37
:103F4000019160B10198411E019140B10198411E5B
:103F5000019120B10198411E00280191EED1204627
:103F60004FF480710122FCF7A5FF0F20019000BFE4
:103F70000198411E019160B10198411E019140B12B
:103F80000198411E019120B10198411E0028019124
:103F9000EED120464FF480710022FCF78BFF0F20FA
:103FA000019000BF0198411E019160B10198411E2E
:103FB000019140B10198411E019120B10198411E2B
:103FC00000280191EED120464FF400710022FCF749
:103FD00071FF0F20019000BF0198411E019160B157
:103FE0000198411E019140B10198411E019120B1FB
:103FF0000198411E00280191EED120464FF48071B6
:104000000122FCF757FF0F20019000BF0198411ECD
:10401000019160B10198411E019140B10198411E8A
:10402000019120B10198411E00280191EED1204656
:104030004FF480710022FCF73DFF0F20019000BF7C
:104040000198411E019160B10198411E019140B15A
:104050000198411E019120B10198411E0028019153
:10406000EED120464FF400710022FCF723FF0F2011
:10407000019000BF0198411E019160B10198411E5D
:10408000019140B10198411E019120B10198411E5A
:1040900000280191EED120464FF480710122FCF7F7
:1040A00009FF0F20019000BF0198411E019160B1EE
:1040B0000198411E019140B10198411E019120B12A
:1040C0000198411E00280191EED120464FF48071E5
:1040D0000022FCF7EFFE0F20019000BF0198411E67
:1040E000019160B10198411E019140B10198411EBA
:1040F000019120B10198411E00280191EED1204686
:104100004FF400710022FCF7D5FE0F20019000BF94
:104110000198411E019160B10198411E019140B189
:104120000198411E019120B10198411E0028019182
:10413000EED120464FF480710122FCF7BBFE0F2028
:10414000019000BF0198411E019160B10198411E8C
:10415000019140B10198411E019120B10198411E89
:1041600000280191EED120464FF480710022FCF727
:10417000A1FE0F20019000BF0198411E019160B186
:104180000198411E019140B10198411E019120B159
:104190000198411E00280191EED1FEF7A3FB0028F3
:1041A00040F0E684F20920464FF40071FCF782FEED
:1041B0000F2001900198411E019160B10198411EAC
:1041C000019140B10198411E019120B10198411E19
:1041D00000280191EED120464FF480710122FCF7B6
:1041E00069FE0F20019000BF0198411E019160B14E
:1041F0000198411E019140B10198411E019120B1E9
:104200000198411E00280191EED120464FF48071A3
:104210000022FCF74FFE0F20019000BF0198411EC5
:10422000019160B10198411E019140B10198411E78
:10423000019120B10198411E00280191EED1C6F3F1
:10424000801220464FF40071FCF734FE0F200190DD
:104250000198411E019160B10198411E019140B148
:104260000198411E019120B10198411E0028019141
:10427000EED120464FF480710122FCF71BFE0F2087
:10428000019000BF0198411E019160B10198411E4B
:10429000019140B10198411E019120B10198411E48
:1042A00000280191EED120464FF480710022FCF7E6
:1042B00001FE0F20019000BF0198411E019160B1E5
:1042C0000198411E019140B10198411E019120B118
:1042D0000198411E00280191EED1C6F340122046FC
:1042E0004FF40071FCF7E6FD0F2001900198411E8C
:1042F000019160B10198411E019140B10198411EA8
:10430000019120B10198411E00280191EED1204673
:104310004FF480710122FCF7CDFD0F20019000BF0A
:104320000198411E019160B10198411E019140B177
:104330000198411E019120B10198411E0028019170
:10434000EED120464FF480710022FCF7B3FD0F2020
:10435000019000BF0198411E019160B10198411E7A
:10436000019140B10198411E019120B10198411E77
:1043700000280191EED1C6F3001220464FF40071DF
:10438000FCF798FD0F2001900198411E019160B14A
:104390000198411E019140B10198411E019120B147
:1043A0000198411E00280191EED120464FF4807102
:1043B0000122FCF77FFD0F20019000BF0198411EF4
:1043C000019160B10198411E019140B10198411ED7
:1043D000019120B10198411E00280191EED12046A3
:1043E0004FF480710022FCF765FD0F20019000BFA3
:1043F0000198411E019160B10198411E019140B1A7
:104400000198411E019120B10198411E002801919F
:10441000EED1C6F3C00220464FF40071FCF74AFD0E
:104420000F2001900198411E019160B10198411E39
:10443000019140B10198411E019120B10198411EA6
:1044400000280191EED120464FF480710122FCF743
:1044500031FD0F20019000BF0198411E019160B114
:104460000198411E019140B10198411E019120B176
:104470000198411E00280191EED120464FF4807131
:104480000022FCF717FD0F20019000BF0198411E8C
:10449000019160B10198411E019140B10198411E06
:1044A000019120B10198411E00280191EED1C6F37F
:1044B000800220464FF40071FCF7FCFC0F200190B5
:1044C0000198411E019160B10198411E019140B1D6
:1044D0000198411E019120B10198411E00280191CF
:1044E000EED120464FF480710122FCF7E3FC0F204F
:1044F000019000BF0198411E019160B10198411ED9
:10450000019140B10198411E019120B10198411ED5
:1045100000280191EED120464FF480710022FCF773
:10452000C9FC0F20019000BF0198411E019160B1AC
:104530000198411E019140B10198411E019120B1A5
:104540000198411E00280191EED1C6F34002204699
:104550004FF40071FCF7AEFC0F2001900198411E52
:10456000019160B10198411E019140B10198411E35
:10457000019120B10198411E00280191EED1204601
:104580004FF480710122FCF795FC0F20019000BFD1
:104590000198411E019160B10198411E019140B105
:1045A0000198411E019120B10198411E00280191FE
:1045B000EED120464FF480710022FCF77BFC0F20E7
:1045C000019000BF0198411E019160B10198411E08
:1045D000019140B10198411E019120B10198411E05
:1045E00000280191EED106F0010220464FF400713F
:1045F000FCF760FC0F2001900198411E019160B111
:104600000198411E019140B10198411E019120B1D4
:104610000198411E00280191EED120464FF480718F
:104620000122FCF747FC0F20019000BF0198411EBA
:10463000019160B10198411E019140B10198411E64
:10464000019120B10198411E00280191EED1204630
:104650004FF480710022FCF72DFC0F20019000BF69
:104660000198411E019160B10198411E019140B134
:104670000198411E019120B10198411E002801912D
:10468000EED1FEF72FF9002840F07282EA092046A9
:104690004FF40071FCF70EFC0F2001900198411EB1
:1046A000019160B10198411E019140B10198411EF4
:1046B000019120B10198411E00280191EED12046C0
:1046C0004FF480710122FCF7F5FB0F20019000BF31
:1046D0000198411E019160B10198411E019140B1C4
:1046E0000198411E019120B10198411E00280191BD
:1046F000EED120464FF480710022FCF7DBFB0F2047
:10470000019000BF0198411E019160B10198411EC6
:10471000019140B10198411E019120B10198411EC3
:1047200000280191EED1C5F3801220464FF40071AC
:10473000FCF7C0FB0F2001900198411E019160B170
:104740000198411E019140B10198411E019120B193
:104750000198411E00280191EED120464FF480714E
:104760000122FCF7A7FB0F20019000BF0198411E1A
:10477000019160B10198411E019140B10198411E23
:10478000019120B10198411E00280191EED12046EF
:104790004FF480710022FCF78DFB0F20019000BFC9
:1047A0000198411E019160B10198411E019140B1F3
:1047B0000198411E019120B10198411E00280191EC
:1047C000EED1C5F3401220464FF40071FCF772FBA6
:1047D0000F2001900198411E019160B10198411E86
:1047E000019140B10198411E019120B10198411EF3
:1047F00000280191EED120464FF480710122FCF790
:1048000059FB0F20019000BF0198411E019160B13A
:104810000198411E019140B10198411E019120B1C2
:104820000198411E00280191EED120464FF480717D
:104830000022FCF73FFB0F20019000BF0198411EB2
:10484000019160B10198411E019140B10198411E52
:10485000019120B10198411E00280191EED1C5F3CC
:10486000001220464FF40071FCF724FB0F2001904A
:104870000198411E019160B10198411E019140B122
:104880000198411E019120B10198411E002801911B
:10489000EED120464FF480710122FCF70BFB0F2074
:1048A000019000BF0198411E019160B10198411E25
:1048B000019140B10198411E019120B10198411E22
:1048C00000280191EED120464FF480710022FCF7C0
:1048D000F1FA0F20019000BF0198411E019160B1D3
:1048E0000198411E019140B10198411E019120B1F2
:1048F0000198411E00280191EED1C5F3C002204667
:104900004FF40071FCF7D6FA0F2001900198411E78
:10491000019160B10198411E019140B10198411E81
:10492000019120B10198411E00280191EED120464D
:104930004FF480710122FCF7BDFA0F20019000BFF7
:104940000198411E019160B10198411E019140B151
:104950000198411E019120B10198411E002801914A
:10496000EED120464FF480710022FCF7A3FA0F200D
:10497000019000BF0198411E019160B10198411E54
:10498000019140B10198411E019120B10198411E51
:1049900000280191EED1C5F3800220464FF400714A
:1049A000FCF788FA0F2001900198411E019160B137
:1049B0000198411E019140B10198411E019120B121
:1049C0000198411E00280191EED120464FF48071DC
:1049D0000122FCF76FFA0F20019000BF0198411EE1
:1049E000019160B10198411E019140B10198411EB1
:1049F000019120B10198411E00280191EED120467D
:104A00004FF480710022FCF755FA0F20019000BF8F
:104A10000198411E019160B10198411E019140B180
:104A20000198411E019120B10198411E0028019179
:104A3000EED1C5F3400220464FF40071FCF73AFA7C
:104A40000F2001900198411E019160B10198411E13
:104A5000019140B10198411E019120B10198411E80
:104A600000280191EED120464FF480710122FCF71D
:104A700021FA0F20019000BF0198411E019160B101
:104A80000198411E019140B10198411E019120B150
:104A90000198411E00280191EED120464FF480710B
:104AA0000022FCF707FA0F20019000BF0198411E79
:104AB000019160B10198411E019140B10198411EE0
:104AC000019120B10198411E00280191EED105F01D
:104AD000010220464FF40071FCF7ECF90F20019021
:104AE0000198411E019160B10198411E019140B1B0
:104AF0000198411E019120B10198411E00280191A9
:104B0000EED120464FF480710122FCF7D3F90F203B
:104B1000019000BF0198411E019160B10198411EB2
:104B2000019140B10198411E019120B10198411EAF
:104B300000280191EED120464FF480710022FCF74D
:104B4000B9F90F20019000BF0198411E019160B199
:104B50000198411E019140B10198411E019120B17F
:104B60000198411E00280191EED1FDF7BBFE18B15E
:104B7000012002B070BD00BF20464FF4007100223A
:104B8000FCF798F920464FF480710122FCF792F966
:104B90000F2001900198411E019160B10198411EC2
:104BA000019140B10198411E019120B10198411E2F
:104BB00000280191EED120464FF400710122FCF74C
:104BC00079F90F20019000BF0198411E019160B159
:104BD0000198411E019140B10198411E019120B1FF
:104BE0000198411E00280191EED1002002B070BD55
:104BF000FEE70000FEE7000070470000704700007D
:104C0000FCF764B97047000040F2F000C2F2000007
:104C1000FCF764BF80B5D0F800E0DEF80800D1E909
:104C200000C320F0770023F0070210434FEA33134C
:104C300040EA0C00072BCEF808000CD80020DFE873
:104C400003F005050505071D370D00BF80BD00BF3A
:104C5000BCF1050F46D1012080BD00BFD1E90202A1
:104C60000969DEF80830104323F47F4340EA01204D
:104C70001843CEF80800002080BD00BF886809698D
:104C8000DEF82020DEF8203022F00A0223F00103B3
:104C9000CEF82030DEF81830104323F0F00343EA5A
:104CA0000111CEF81810CEF82000002080BD00BF02
:104CB00088680969DEF82020DEF8203022F0A002A2
:104CC00023F01003CEF82030DEF8183042EA00104E
:104CD00023F4704343EA0131CEF81810CEF82000D7
:104CE000002080BDDEF82000DEF8202022F0010246
:104CF000CEF82020DEF81820096922F0F00242EAFE
:104D00000111CEF81810CEF82000002080BD000060
:104D1000FEE7000096B0FCF7E7F803AC201D242165
:104D2000FBF76EFB022003900120079010200890F3
:104D3000002520460A95FCF785FA28B1EFF310808C
:104D400072B600BFFEE700BF0F20CDE90D050DA82C
:104D50000021CDE90F551195FCF76EF920B1EFF365
:104D6000108072B6FEE700BF002441F21800CDE9C2
:104D70000544CDE90344C4F20200016840F600494D
:104D800041F0200101600168C4F2010901F0200135
:104D90000D910D990168002241F004010160016844
:104DA0004FF2200501F004010D910D99016841F0C9
:104DB0000801016000684FF2200100F008000D902A
:104DC0000D984846FCF776F80120CDE9040402204E
:104DD000069003A948460395FBF75EFF40F278056D
:104DE000C2F2000509F50051284640F8301F47215E
:104DF00040F2E732CDE914440994C0E90114C0E956
:104E00000324C0E90544FDF741F828B1EFF3108011
:104E100072B600BFFEE700BF05F1300614A93046A8
:104E2000FCF750FC20B1EFF3108072B6FEE700BF34
:104E300060200D900020CDE90E00CDE91000CDE9F5
:104E400012000DA930460022FCF71EFF20B1EFF33F
:104E5000108072B6FEE700BF0DA930460C22FCF7A9
:104E600013FF28B1EFF3108072B600BFFEE700BF5A
:104E70004FF400500024089003A930460794CDE970
:104E80000544CDE903440A94FCF7F6FB20B1EFF3A7
:104E9000108072B6FEE700BF3046FCF7C7FE40F256
:104EA000F000C2F200004FF080414FF6FF73CDE9F1
:104EB0001444472280E81600C0E903348461FCF7FB
:104EC00055FD28B1EFF3108072B600BFFEE700BFBA
:104ED000042003905020049040F2F0000024C2F21D
:104EE000000003A9CDE905440794FDF7E3F828B1D4
:104EF000EFF3108072B600BFFEE700BF0120CDE9DE
:104F00000E0440F2F000C2F200000DA900220D9440
:104F10001094FCF769FC28B1EFF3108072B600BF63
:104F2000FEE700BF0220CDE90D0040F2F000C2F222
:104F300000000DA90422FCF757FC18B1EFF3108014
:104F400072B6FEE740F2F0000024C2F2000014A99D
:104F5000CDE91444FCF7B6FB20B1EFF3108072B634
:104F6000FEE700BF40F2381009F53051C2F20000F0
:104F70000C234FF4E13280E81600C0E90344C0E995
:104F80000534C461FDF7C4F820B1EFF3108072B6A8
:104F9000FEE700BFFDF7CAFDE0B140F2801776489A
:104FA00075A1C2F200070D1D2CCD87E82D00888A5F
:104FB0000C69897DB88238463C61B975FBF701FA06
:104FC00082B240F23810C2F2000039464FF0FF338F
:104FD000FDF750F930460021FCF7F0FF30460C2178
:104FE000FCF7ECFFFBF76CFF40F27805C2F200051E
:104FF0008246281D0290FBF763FFA0EB0A000A28F7
:10500000F9D3FBF75DFFA0EB0A0001F02DF80021BA
:10501000C4F27A4100F0FEFE0646FBF751FF02990A
:10502000824628463246FDF7FBFC40F20000C2F201
:105030000000D0E90018856840F27800C2F2000054
:105040000668C768304601F061F93946044601F048
:105050005DF90146284601F083F8054640462146A1
:1050600001F07EF8294640F27805C2F2000500F012
:1050700033FEC5E9020400F0C3FF0021834626F099
:105080000040C4F2342100F0ABFE38B9484620217C
:1050900000224FF0000BFBF70DFF07E048462021F0
:1050A0000122FBF707FFBBF1000F53D448464FF432
:1050B000805101224FF00108FBF7FCFE48464FF4F7
:1050C000005100220026FBF7F5FE48464FF48041D0
:1050D0004246FBF7EFFE48464FF400413246FBF7ED
:1050E000E9FED5E90B01BBF5487F28BF4FF4487BAB
:1050F000C1F834B0C1F840B0411C1428E962FFF691
:105100007AAF2868AC6800F0BBFD054620460E4625
:1051100000F076FF40F28014C2F2000407462046F9
:105120001BA12A4640F278053346C2F200050097DB
:10513000FBF770F82046FBF744F982B240F23810D2
:10514000C2F2000021460A23FDF794F80020E8622D
:1051500051E700BF48464FF4805100224FF000084D
:10516000FBF7A8FE48464FF4005101220126FBF749
:10517000A1FECBF1000BA8E74D505536303530205D
:10518000496E6974204661696C6564210D0A0000EE
:10519000416E676C653A20252E3266207C20505780
:1051A0004D3A2025640D0A005FEA400C08BF91F0DB
:1051B000000F4FEA8C234FEAC12243EA51514FEAD4
:1051C0001C5018BF00F5F0404FEA300018BF41F006
:1051D00000415FEA6C5C00F02980BCF1FF3F08BF32
:1051E00040F080407047130C06BF12044FF0100CC3
:1051F0004FF0000C130E04BF12020CF1080C130F39
:1052000004BF12010CF1040C930F04BF92000CF1C7
:10521000020CD30F04BF52000CF1010C11464FF0E9
:105220000002A0F11F00A0EB0C00704711F0004F2E
:1052300008BF704731F000413FF4D5AF0B0C06BFFB
:1052400009044FF0100C4FF0000C0B0E04BF0902C4
:105250000CF1080C0B0F04BF09010CF1040C8B0FAF
:1052600004BF89000CF1020CCB0F04BF49000CF104
:10527000010CCCF1200322FA03F341EA030102FA04
:105280000CF2A0EB0C0000F10100704723F07F4707
:1052900020F07F4C80EA030000F00040ACEB0703F5
:1052A00003F57C5303F1FF032DE9804909B44FEA6C
:1052B000144324EA03484FEA154B25EA0B4E0FF23C
:1052C000042606EB13273E7803FB0667C7F50007A5
:1052D00007FB06F64FEAD64606F102064FEA5437B8
:1052E00007FB066CCCF1005C4FEA1C472CEA074C2C
:1052F0000CFB06F507FB06F404EB15464FEA961681
:1053000049085FEA320234BF00204FF000404FEA04
:10531000D13706FB07FC4FEA1C4C0CFB0BF7D21BEA
:1053200003FB0CF761EB07010CFB0EF7B0EB07403A
:1053300072EB17420CFB08F734BFA2EB0742B2EB4B
:10534000074261EB17414FEA0C444FEA910706FB15
:1053500007FC4FEA1C4C0CFB0BF7B0EBC74072EBA1
:10536000573203FB0CF734BFA2EBC742B2EBC74284
:1053700061EB57310CFB0EF7B0EBC70072EB5772C5
:105380000CFB08F734BFA2EBC702B2EBC70261EB1C
:1053900057714FEA816141EA92114FEA826242EA13
:1053A00090124FEA806004EBCC04039F4FEAD137A0
:1053B00006FB07FC4FEA1C4C0CFB0BF7D21B03FB54
:1053C0000CF761EB07010CFB0EF7B0EB074072EB3B
:1053D00017420CFB08F734BFA2EB0742B2EB0742BF
:1053E00061EB17414FEA8C5504EB9C244FEA91077F
:1053F00006FB07FC4FEA1C4C0CFB0BF7B0EBC7405D
:1054000072EB573203FB0CF734BFA2EBC742B2EB8F
:10541000C74261EB57310CFB0EF7B0EBC70072EBE4
:1054200057720CFB08F734BFA2EBC702B2EBC702FE
:1054300061EB57714FEA816141EA92114FEA826252
:1054400042EA90124FEA806015EB4C2544F10004CB
:105450004FEAD13706FB07FC4FEA1C4C0CFB0BF75D
:10546000D21B03FB0CF761EB07010CFB0EF7B0EB53
:10547000074072EB17420CFB08F734BFA2EB074260
:10548000B2EB074261EB17414FEA813141EA9241A9
:105490004FEA823242EA90424FEA80304FEA0C767D
:1054A00015EB1C1544F1000448EA03434EEA0B488F
:1054B0004FF0000EB2EB080C71EB030724BF6246FD
:1054C00039464EEB0E0E4FF0000B00185241494189
:1054D0004BEB0B0BB2EB080C71EB03077BF1000BF2
:1054E00024BF624639464EEB0E0E4FF0000B0018FB
:1054F000524149414BEB0B0BB2EB080C71EB03072C
:105500007BF1000B24BF624639464EEB0E0E51EA8A
:10551000020718BF46F0010616EB0E7655F10002A1
:1055200054F1000103D5BDE88901BDE80088BDE85C
:105530008901BDE80048B619524141EB0101A3F1D0
:105540000103704780807F7E7D7C7B7A79787776D7
:1055500076757473727171706F6E6E6D6C6C6B6A50
:105560006A696868676666656464636362616160EE
:10557000605F5F5E5E5D5D5C5C5B5B5A5A5959586B
:1055800058575756565555555454535352525251D5
:10559000515050504F4F4F4E4E4D4D4D4C4C4C4B2B
:1055A0004B4B4A4A4A494949484848474747474672
:1055B00046464545454444444443434343424242AE
:1055C000424141419C46002B30D477002BD04FEA1A
:1055D00037071CB503B44FF010004FF01001BAF1BB
:1055E000000F06D0BCF1000FDCBF40F0080040F017
:1055F00008014FF000000FBCBDE810400BF1010B9B
:10560000BBF1010F08BF5FEA170722BF12F10102C9
:1056100011F101014FF0004143F1000300F000409F
:1056200043EA00007047F9D35708D0E746EA064638
:105630004FEA164613F1400F1FDD13F1200FDFBFB5
:1056400016430A46002120335B42BED0C3F1200737
:1056500046EA06464FEA164602FA07F746EA070602
:1056600022FA03F2C3F1200701FA07F742EA070220
:1056700021FA03F14FF00003A7E746EA020646EAE3
:1056800006464FEA164646EA0106BCBF46EA06460B
:10569000360C4FF000034FF000024FF0000194E78A
:1056A0002DE9804C70B49A46934691E8380007C8BB
:1056B00031EA400C48BF34EA430C03D5FFF7E6FD5E
:1056C000FFF780FFF0BCBDE8008C2DE9804C70B482
:1056D0009A46934691E8380007C810F0804F08BFFB
:1056E00013F0804F03D100F005F8FFF76BFFF0BC1B
:1056F000BDE8008C20F07F4723F07F4C80EA030058
:1057000000F0004007EB0C03A3F57C53A3F1FE036C
:1057100092F0000F00F0B38095F0000F00F077805A
:105720002DE901494FEA114021EA00484FEA1446A9
:1057300024EA064700FB06FC08FB06F607FB08F810
:1057400018EB06484CEB164C00FB07F718EB074824
:105750004CEB17404FEA124B22EA0B4E4FEA15462C
:1057600025EA06470BFB06FC0EFB06F607FB0EFEC2
:105770001EEB064E4CEB164C0BFB07F71EEB074ED1
:105780004CEB174B18EB0B0840F1000018EB0E0B1D
:1057900058EB000840F100008F1A4FF000014FF065
:1057A00000063CBFC943661B14BFB5EB040C0021C7
:1057B0003CBFC943F61B4FEA174427EA04454FEAAA
:1057C0001C472CEA074C04FB076205FB07F70CFBA0
:1057D00005F616EB074642EB174204FB0CFC16EBF2
:1057E0000C4642EB1C421BEB060658EB0202414101
:1057F0004EEA8E0E46EA9E0601D5BDE80189B6192D
:10580000524141EB0101A3F10103BDE801894FEAD7
:10581000144524EA05464FEA114721EA074C05FBE7
:1058200007F406FB07F70CFB06F111EB074144EB0D
:10583000174405FB0CFC11EB0C4144EB1C444FEAF4
:10584000124722EA074C05FB07F206FB07F70CFBA1
:1058500006F616EB074642EB174205FB0CFC16EB6F
:105860000C4642EB1C456A1854F1000148BF7047D2
:10587000B619524141EB0101A3F10103704795F0C4
:10588000000F37D04FEA114221EA02464FEA14478F
:1058900024EA074C02FB07F106FB07F70CFB06F4B2
:1058A00014EB074441EB174102FB0CFC14EB0C44D6
:1058B00041EB1C414FEA154725EA074C02FB07F56F
:1058C00006FB07F70CFB06F616EB074645EB1745FC
:1058D00002FB0CFC16EB0C4645EB1C42121951F175
:1058E000000148BF7047B619524141EB0101A3F1D5
:1058F000010370474FEA144524EA05464FEA114771
:1059000021EA074C05FB07F106FB07F70CFB06F243
:1059100012EB074241EB174105FB0CFC12EB0C426A
:1059200051EB1C414FF0000648BF7047921841EB05
:105930000101A3F101037047490050EAC12018BFDB
:1059400004204A0D18BF40F0010040F2FF72B2EB94
:10595000515F08BF40F00200012808BF05207047D2
:105960004100080218BF04200A0E18BF40F00100D1
:105970004FF07F4232EA010108BF40F002000128E7
:1059800008BF0520704700F0A7B96FF05E01080757
:1059900000F065BD30380A2801D201207047002090
:1059A000704700002DE9F0474FF0684202EB4003DA
:1059B0000C460546B3F1654F3CBF02EB4102B2F124
:1059C000654F80F0CD8000BFC0F3C752C1F3C7530D
:1059D000D21A1B2A06DD10F0004F14BF87488848F2
:1059E000BDE8F08712F11A0F2FDA11F0004F06D040
:1059F00010F0004F0CBF83488348BDE8F087214674
:105A0000284600F007FA0646FFF7AAFF042808BF59
:105A1000FFF7BBFF2846FFF7A3FF05462046FFF729
:105A20009FFF04463046FFF79BFF042D18BF052D4E
:105A300008D1042C18BF052C04D1002804BF022073
:105A4000FAF70DFD3046BDE8F0874200B2EB410F9A
:105A500025D910F0004F19BF6C4F6D4E6D4F6E4E33
:105A6000224685F0004415460A4680F00041104663
:105A70000A1A5200B2F1807F3ED248406749DFF8EF
:105A8000A0A110F0004F18D04FF03F48384600F06A
:105A90003DFC07465146304600F038FC17E011F057
:105AA000004F04BF00263746E2D010F0004F19BF68
:105AB0005C4F5D4E5D4F5E4EDAE74FF07C583846E6
:105AC00000F00AF907465146304600F005F906464F
:105AD0004146284600F044FB214600F0FDF882468E
